:100000000C94DC030C94F9030C94F9030C94F9039D
:100010000C94F9030C94F9030C94F9030C94F90370
:100020000C94F9030C94F9030C9429260C94FB26E8
:100030000C9434210C94F9030C94F9030C94F903F7
:100040000C94F9030C94F9030C94F9030C94F90340
:100050000C94F9030C948D210C94F9030C94F9037E
:100060000C94F9030C94F9030C94F9030C94F90320
:100070000C94F9030C94F9030C94F9030C94F90310
:100080000C94F9030C94F9030C94F9030C94F90300
:100090000C94F9030C94F9030C94F9030C94F903F0
:1000A0000C94F9030C94F9030C94F90355045804C7
:1000B0005B045E04610464046704D40BCA0BD70BB1
:1000C0001F0C230C230C1F0C230C230CF80B230CEC
:1000D000020C0C0C230C230C230C230C1F0C230CE4
:1000E000230C1F0C230CE50B230C230C1C0C1C0CE9
:1000F0001C0C1C0C1C0C1C0C1C0C1C0C1C0C210CBB
:10010000230CD40BC70B230C230C230C230C230C24
:10011000230C230C230C230C230C210C230C230C69
:100120001F0C230C1A0C1A0C1A0C1A0C1A0C1A0C91
:100130001A0C1A0C1A0C210C5F165F1691169116E8
:10014000DA16FC16151879180717A217B417B41782
:100150002118441829182C18371831183C18381948
:1001600038194A194A1941194A194A194A193819A4
:10017000381946194A194A19461968278F278728B6
:100180008F278728DB27FE27872855286428000D1E
:10019000010D020D030D040D050D000C010C020CE8
:1001A000030C040C050C000B010B020B030B040BDE
:1001B000050B000A010A020A030A040A050A0009DB
:1001C00001090209030904090509000801080208D8
:1001D00003080408050800070107020703070407CE
:1001E00005070006010602060306040605060005CB
:1001F00001050205030504050505000401040204C8
:1002000003040404050400030103020303030403BD
:1002100005030002010202020302040205020001BA
:1002200001010201030104010501000001000200B7
:100230000300040005001B0107082B43E100E00058
:1002400000000601330004003800E300E300190158
:10025000360012001400466F2A00260237000800FC
:100260000D00E2002C002F02130018000E000251B6
:1002700029002F001C000C001B0000004C001C017A
:100280001D010000340000006F0036021F02000054
:1002900004530000E30037020900070005000000D6
:1002A0004C0023020A000B0010002D634A002E00B0
:1002B000060017001A000251DA5C24021500110032
:1002C000190071002B7131020F0016001D00720021
:1002D0004D003E0050046E43E50073000000010035
:1002E0000100010001000100000001000100010007
:1002F00001000100010001000100010001000100F6
:1003000001000100010001000100010001000100E5
:1003100001000100010001000100010001000100D5
:1003200001000000010001000100000001000000C8
:1003300001000100010000000100000001000100B7
:1003400001000100010000000100010001000100A6
:100350000100010001000100010001000100010095
:100360000100010001000100010001000100010085
:100370000100010001000100010001000100010075
:100380000100010000000100010001000100010066
:1003900000003A00010001000100010001003B00E3
:1003A000F100EF006C00010001003C00ED00EE00E8
:1003B0002B08010001003D00F200F0006D0001007B
:1003C00001003E00010068006900000001003F00DC
:1003D00001000000E30000000100400001000000F7
:1003E00001000000010041000100010001000000C7
:1003F00001004200F100FB000100FD00010043008C
:10040000F900FA000100FE0001004400F200FC00C7
:100410000100FF0001004500010001000100010092
:1004200001000100010001000100010000000100C5
:100430000100010001000100000001001F02500145
:100440000100010001000100510150000100010004
:100450000100270252005100B400010001003002E7
:1004600052014F00010001000100300001004F0166
:100470000100000001000100010000000100000077
:1004800001000100010000005500000001003702DA
:100490001E022E005600000001002302240021004D
:1004A0001E0062004B006400250022001F00630054
:1004B0000100010026002300200001000100AA0025
:1004C00001005500380001004E00A900AB00AE004D
:1004D000AC0001000000010001000100010001006A
:1004E00000001E00140004001D00010001001F0098
:1004F0001A0016001B000100010020000800070080
:10050000060001000100210015000900190001008A
:100510000100220017000A00050000000100010090
:1005200001000000010000000100230001000000A4
:1005300004530000010024001C000B001100000007
:100540000100250018000D00100001000100260028
:100550000C000E00360001000100010012000F0027
:100560003700010001006200130033003800010071
:100570000100010001000100010001000000000075
:100580000000000000002A2B2800000000000000EE
:1005900000000000000000000029000000002C1EE8
:1005A0003420212224342627252E362D3738271EA5
:1005B0001F202122232425263333362E37381F04CB
:1005C00005060708090A0B0C0D0E0F101112131463
:1005D00015161718191A1B1C1D2F3130232D350421
:1005E00005060708090A0B0C0D0E0F101112131443
:1005F00015161718191A1B1C1D2F3130354C000009
:1006000000000000000000000000000000000000EA
:1006100000000000000000000000000000000000DA
:1006200000007E0F00D4FFFFFFC700000078160314
:100630004500720067006F0044006F0078002000E2
:1006400045005A00000028035A00530041002000D2
:1006500054006500630068006E006F006C006F005E
:100660006700790020004C00610062007300000008
:100670000403090409023B00020100A0FA09040076
:1006800000010301010009211101000122400007BE
:1006900005810308000A09040100010300000009A4
:1006A000211101000122B6000705820320000A1271
:1006B0000110010000000897327449010001020096
:1006C0000105010902A10185020901A1000509191D
:1006D0000129081500250195087501810205010908
:1006E0003009311581257F95027508810609381575
:1006F00081257F950175088106050C0A3802158150
:10070000257F950175088106C0C005010980A101FA
:10071000850319012AB700150126B7009501751048
:100720008100C0050C0901A101850419012AA0025C
:10073000150126A002950175108100C0050109066A
:10074000A1018505050719E029E715002501950890
:10075000750181020507190029EF1500250195F0A3
:100760007501810205081901290595057501910298
:10077000950175039101C005010906A1010507193D
:10078000E029E7150025019508750181029501759D
:100790000881010507190029FF150026FF009506AD
:1007A0007508810005081901290595057501910253
:1007B000950175039101C00011241FBECFEFDAE04F
:1007C000DEBFCDBF11E0A0E0B1E0E8EAF4E502C091
:1007D00005900D92A838B107D9F722E0A8E8B1E05A
:1007E00001C01D92A43DB207E1F70E9463230C945F
:1007F000522A0C9400008098889A8198899A84984B
:100800008C9A85988D9A86988E9A87988F9A089553
:10081000209828982198299822982A9823982B98EC
:1008200052985A9853985B983E9846980895CF935B
:10083000E82F873080F58091060190910701892B80
:1008400009F047C0CE2F64E670E080E40E944112B8
:100850009093070180930601892BD1F464E670E040
:1008600082E10E9498129093070180930601892BE0
:1008700079F481E090E001C0880FCA95EAF764E658
:1008800070E080950E949812909307018093060172
:10089000CF910C94ED1290E0FC013797E730F10511
:1008A000C0F4EA5AFF4F0C94E328209A289811C00C
:1008B000219A29980EC0229A2A980BC0239A2B9825
:1008C00008C0529A5A9805C0539A5B9802C03E9A43
:1008D0004698CF910895CF93873040F580910601D7
:1008E00090910701892B59F564E670E081E40E943C
:1008F00041129093070180930601892B11F0C0E00B
:1009000011C084E690E00E94C81297FF05C0909342
:10091000070180930601F3CFC82FC09510920701FD
:10092000109206010E94ED128C2F0AC09FB18FB168
:10093000807F869586959370892B809501C080E095
:10094000CF9108950E94A00590E0909307018093B5
:1009500006010E9408040C94FB03EF92FF920F9390
:100960001F93CF93DF938091060190910701892B0C
:1009700091F080918A018F5F80938A0181110BC071
:100980000E94A00590E09093070180930601892BB7
:1009900011F40E9412050DE912E0C0E0F12C87E08D
:1009A000E82EEC0E8C2F0E9417048E2D0E94170447
:1009B0008C2F0E946B04F8019081891719F08083B5
:1009C000D1E001C0D0E08E2D0E946B04F801978128
:1009D000891719F0878381E001C080E0D82BFD2AB8
:1009E0000E940804CF5F0F5F1F4FC730C1F68F2DE5
:1009F000DF91CF911F910F91FF90EF9008950E948A
:100A0000A00590E090930701809306010E940804DE
:100A10000E94FB03EBEAF2E0119282E0E93BF80767
:100A2000D9F7089556985E9825982D9826982E986F
:100A300027982F988FEF90E09093890080938800FB
:100A400090938B0080938A0090938D0080938C000C
:100A5000259A2D9A2FEF80E792E021508040904018
:100A6000E1F700C00000269A2E9A2FEF80E792E06F
:100A7000215080409040E1F700C00000279A2F9A53
:100A80002FEF80E792E0215080409040E1F700C0D6
:100A9000000025982D982FEF80E792E021508040AC
:100AA0009040E1F700C0000026982E982FEF80E7D5
:100AB00092E0215080409040E1F700C0000027986C
:100AC0002F9856985E9825982D9826982E982798B6
:100AD0002F98089589EA8093800089E080938100AF
:100AE00024982C983F988AB18F7C8AB96E98479A3F
:100AF0008BB180638BB9769A0E94A81F609397028E
:100B0000709398028093990290939A0267708FEF86
:100B1000689FB0011124759567957595679577273E
:100B2000709389006093880070938B0060938A00B3
:100B300070938D0060938C000E9412050C94EF0955
:100B400080E290E0909307018093060180918B01F1
:100B500081110EC00E943B1281E080938B012FEF28
:100B600083ED90E3215080409040E1F700C0000009
:100B700064E670E080E40E94411290930701809344
:100B80000601892B09F04EC064E670E080E00E9407
:100B900098129093070180930601892B09F042C0B7
:100BA00064E670E080E00E949812909307018093C1
:100BB0000601892BB9F564E670E08FE30E94981274
:100BC0009093070180930601892B61F50E94ED1235
:100BD00064E670E080E40E944112909307018093E4
:100BE0000601892BF9F464E670E08CE00E9498120B
:100BF0009093070180930601892BA1F464E670E0CD
:100C000080E00E9498129093070180930601892B3F
:100C100049F464E670E08FE30E9498129093070114
:100C2000809306010E94ED128091060108951092B2
:100C30009702109298021092990210929A0284E000
:100C400080618093970260919702709198028091E1
:100C5000990290919A020E94AC1F0C94B81F9C01BB
:100C60003A9521153F4138F5DC01AA27B270AC0155
:100C7000442754709C012227387094FF0FC090FFC6
:100C800002C080E101C080E0AB2B09F08062452BFF
:100C900009F08064232B69F080680BC0892F817074
:100CA000AB2B09F08260452B09F08460232B09F0FF
:100CB0008860FB0109940895CF93DF93EC01805E77
:100CC0009109089710F0209719F462E176E102C0CB
:100CD0006EEF78E1CE010E942F068C2FDF91CF912D
:100CE0000C94DB14CF93DF93EC010E948A15CE01A4
:100CF000805E9109089710F0209719F469E176E178
:100D000002C065E079E1CE01DF91CF910C942F060E
:100D1000CF93DF93EC010E945C06CE01DF91CF916F
:100D20000C94720681E0089581E008950C94940675
:100D300008950C9498061F93CF93DF9300D000D0B2
:100D40001F92CDB7DEB749835A836B833091D301AD
:100D500089819A81311114C0662359F0222349F008
:100D60000E94F61D182F682F89819A810E949D1D6F
:100D700003C00E94C91D182F69817A81812F04C088
:100D80000E94F61D69817A810F900F900F900F904D
:100D90000F90DF91CF911F910C94D307FC01262F68
:100DA000408151816281738184810C949B06CF9331
:100DB000DF93EC0160E00E94CE06BE01DF91CF918F
:100DC0000C9499060E94BF090E94740F0C946A0546
:100DD0000C94ED0908950E9426190E94EA062FEF4F
:100DE00084E39CE0215080409040E1F700C0000087
:100DF0000C94B3210F931F93CF93DF938C0161E089
:100E00000E94CE06EC01B8010E949606882309F4E0
:100E100044C0B801CE010E94FC0F8823F1F1B80153
:100E2000CE010E948D108823C1F1B801CE010E942D
:100E3000DF10882391F1B801CE010E940A128823A5
:100E400061F1F8018281882309F1CB358DE5D8075E
:100E5000C1F050F4C115FCE5DF0781F0CF3DDC4562
:100E6000A9F40E941C2019C0CC35EDE5DE0761F025
:100E7000CD35DD4559F40E94B11E08C00E94EB0635
:100E80000CC00E94BA1E02C00E94BD1EC801DF91A4
:100E9000CF911F910F910C94920680E0DF91CF913A
:100EA0001F910F910895DF92EF92FF920F931F937E
:100EB000CF93DF93E82FF0E0E258FA4FD490282F39
:100EC00026952695269530E0F901E25EF94F0491CA
:100ED000877010E0082E02C0159507950A94E2F776
:100EE00001701127F901E25FF94FE490F12C082E0F
:100EF00002C0F594E7940A94E2F791E0E922FF2416
:100F0000F901E250FA4FC491D0E002C0D595C795DF
:100F10008A95E2F7C170DD270115110519F081EE00
:100F20000E94DB14E114F10419F086EE0E94DB1438
:100F30008D2D0E940916EF2819F086EE0E948A1561
:100F4000012B19F081EE0E948A15CD2B51F08CE215
:100F5000DF91CF911F910F91FF90EF90DF900C9454
:100F60000916DF91CF911F910F91FF90EF90DF90C5
:100F70000895982F9F709A50963010F0805D01C0B0
:100F8000895A0C94530708950C94C30781E008957F
:100F90000C94C607CF93C82F0E94C4078C2F0E94C1
:100FA000C807CF91089524E5829FC0011124FC0158
:100FB00026E0729FE00DF11D1124E60FF11DEE0FEA
:100FC000FF1FEA5CFD4F859194910895CF93DF93C5
:100FD0000E94D3070E94E708EC01811522E59207E1
:100FE00008F049C0C11581E5D80708F0B3C0C83E74
:100FF000D10528F5C03ED10508F0E5C0C83AD105B5
:1010000078F4C53AD10508F081C0C130D10509F4A2
:10101000DAC008F4D6C0C430D10508F0D4C0D1C0BD
:10102000CF3BD10508F0CDC0C85AD0E0CC0FDD1FB2
:10103000C55EDE4F0990D881C02DD464C4C0C115EF
:1010400090E2D90758F4C11521E0D20708F0BBC0DF
:10105000CD3ED10508F4B5C0D065B5C0C11580E45A
:10106000D80708F4AEC0C11590E5D90708F056C0FE
:10107000DF70D06AA8C0811526E5920718F5C11562
:1010800085E5D80708F07FC0C11594E5D90708F0B9
:1010900075C09E01237033278C2F86958695C115C8
:1010A000D34508F05CC0C1E0D0E002C0CC0FDD1F2A
:1010B0002A95E2F720E2829FC0011124C82BD92B88
:1010C000DC6881C0811529E5920768F4C11588E5BF
:1010D000D80708F062C0C11597E5D90708F071C0BC
:1010E000DD27D06670C081152AE5920708F45AC042
:1010F00090568115904208F064C08D2F8F710E9428
:101100007B09DD27D0628F71D82B5DC0C55AD0E036
:10111000C75BDE4FC881D0E0D06455C0CE0174E01B
:10112000969587957A95E1F783709C2F937021E0CF
:1011300030E002C0220F331F9A95E2F73C68382B4B
:10114000CF70C695C69580E2C89FE0011124C22BDE
:10115000D32B39C0DC2FCC27C16FD06A34C0C1E09B
:10116000D0E002C0CC0FDD1F2A95E2F720E2829F7B
:10117000C0011124C82BD92BDA6825C0DC2FCC275D
:10118000C46FD06A20C08C2F0E947B098F71C82F3A
:10119000D0E0DC2FCC27D06216C0DC2FCC27C06F6C
:1011A000D06A11C08F700E947B0994E0D695C795D4
:1011B0009A95E1F7CF70D0E0DC2FCC27D069C82B0F
:1011C00002C0C0E0D0E0CE01DF91CF910895823817
:1011D000910569F1B0F48133910509F46DC048F4CB
:1011E0008932910509F463C08A32910509F469C016
:1011F00008958533910509F455C089339105B9F0F7
:101200000895833E910569F138F4803E9105B1F06F
:10121000823E910509F10895863E9105A9F1873E28
:101220009105B9F1843E910509F064C023C0209175
:101230009B0220FD4FC021FD4DC0089580919B026F
:1012400080FD44C080919C0280FF44C080919B023D
:1012500084FD42C083EE4DC080919B0282FF38C066
:10126000F5CF80919B0282FD33C080919C0280FD6E
:1012700031C0ECCF80919C0281FF32C080919B02F3
:1012800084FD2AC087EE35C080919B0283FF26C073
:10129000F5CF80919B0283FD21C080919C0281FD4E
:1012A0001FC0ECCF80919B0285FD1CC01DC08091AA
:1012B0009B0285FD19C016C080919B0286FD16C059
:1012C00017C080919B0286FD13C010C089E311C036
:1012D00082EE0FC080EE0DC080E00BC086EE09C02C
:1012E00084EE07C089E205C085E303C08AE201C03D
:1012F00081E390E0089590919B0292FF0DC0282F0A
:101300002871283019F4877F846006C0282F247143
:10131000243011F48B7F886093FF0DC0282F287133
:10132000283119F4877E846106C0282F2471243166
:1013300011F48B7E886120919C0220FF0DC0382F14
:101340003871383019F4877F816006C0382F3171C9
:10135000313011F48E7F886021FF0DC0282F287155
:10136000283119F4877E816106C0282F217121312F
:1013700011F48E7E886194FD877E089508950E9401
:10138000771F811102C00E941C200E94821F80933F
:1013900073020E948A1F90939C0280939B020E947A
:1013A000BE090E94861F682F70E080E090E00E94D6
:1013B0009F1C609145027091460280914702909176
:1013C00048020C94D71CE82FF0E0E555FD4F8081D2
:1013D0000895089508950C94EA090C94EB090C946F
:1013E000EA090E94A204EDE9F2E0ABEAB2E0119250
:1013F0001D9282E0EB3AF807D1F78EE00E94150AC1
:101400000C94E206CF938DE992E00E94AD04C82FC0
:10141000282F4EE06BEA72E08DE992E00E948E0A7E
:101420000E94E8068C2FCF910895CF93C82F90E0AB
:101430000E94E9288093900190939101282FFC014C
:101440009BEF8E2F821B8C1710F49193FACFCF91C4
:1014500008950F931F93CF93DF93A62F10928F01C0
:1014600030919001E32FF091910120E0C62FD0E060
:10147000BBEF0BEF10E09E2F931B981700F59081A8
:101480009B3FD9F0492F50E0A91728F0BE01641BFB
:10149000750BAB0106C0B801641B750BAB014C0F9B
:1014A0005D1F052E000C660B770B4E315105610553
:1014B000710510F0B08301C021E03196DCCF20939C
:1014C0008F01DF91CF911F910F910895CF93DF93FB
:1014D000109292015091900130918F01DB01EC014B
:1014E000E52FF091910190E08E2F851B841778F401
:1014F00089916C91681741F060816B3F21F42083E2
:101500008C9331E001C091E031961196EDCF30938C
:101510008F0190939201DF91CF910895DF92EF9226
:10152000FF920F931F93CF93DF93EC018B01E42E77
:10153000D22E0E946621AC0160918D0170918E01C6
:1015400090938E0180938D0190918C01292F30E032
:10155000261B370BC901840F951F6BEF70E00E94AB
:10156000BB28F82E80938C0180918F01882319F17C
:101570006F2D8E2D0E94290ADD2069F02F2D4E2D12
:10158000B801CE01DF91CF911F910F91FF90EF90A5
:10159000DF900C94660A80918F01882379F3809103
:1015A00092018111EBCFDF91CF911F910F91FF90AD
:1015B000EF90DF900895D110E1CFF1CF833081F12A
:1015C00028F4813059F08230D1F00895853009F443
:1015D00049C0B8F1863009F456C00895809196014B
:1015E000262F30E0280F311D2F3F310524F4680FDE
:1015F0006093960108958FEF8093960108958091EE
:101600000D01262F30E0280F311D2F3F310524F426
:10161000680F60930D0108958FEF80930D01089579
:1016200080910C01262F30E0280F311D2F3F31050E
:1016300024F4680F60930C0108958FEF80930C01E0
:10164000089580910B01262F30E0280F311D2F3F88
:10165000310524F4680F60930B0108958FEF809398
:101660000B01089580910901262F30E0280F311DCC
:101670002F3F310524F4680F6093090108958FEF1F
:1016800080930901089580910801262F30E0280FEA
:10169000311D2F3F310524F4680F60930801089530
:1016A0008FEF809308010895833011F128F4813081
:1016B00049F0823091F00895853081F120F1863033
:1016C000C1F1089580919601681720F4861B8093DC
:1016D0009601089510929601089580910D01681762
:1016E00020F4861B80930D01089510920D0108953A
:1016F00080910C01681720F4861B80930C010895DB
:1017000010920C01089580910B01681720F4861B3C
:1017100080930B01089510920B01089580910901A7
:10172000681720F4861B809309010895109209011F
:10173000089580910801681720F4861B80930801A2
:1017400008951092080108950F931F9341E050E00F
:1017500060E070E08A019B0104C0000F111F221F8E
:10176000331F8A95D2F7C901B8010E949F1C1F91AF
:101770000F910C942619482F50E0FA013597EF335A
:10178000F10508F060C0E35AFF4F0C94E3280E9473
:101790001C2055C080917302817F8E7F80937302DD
:1017A00081E08093940108950E94EB0648C08091E7
:1017B0007302982F9095917090FB80F9809373023B
:1017C00091113DC0897F877F10C08091730281FB9A
:1017D000222720F991E0922790FB81F980937302F0
:1017E000992369F18091730281608093730227C00D
:1017F0008091730282FB222720F991E0922790FBCF
:1018000082F9ECCF8091730283FB222720F991E0CB
:10181000922790FB83F9E2CF0E94261980919B02C8
:1018200087FB222720F991E0922790FB87F980938C
:101830009B0205C0895301C08D510E94A40B81E019
:10184000089580E0FACF80E0089580E008950C9438
:10185000250C8E518A3030F4E82FF0E0E45BFE4F27
:101860008081089580E00895CF93C82F80919401DE
:10187000813071F018F08230E1F184C00E94C01E06
:10188000813151F00E94C01E823209F07DC004C037
:101890000E94C01E813149F48C2F0E94270C8111B7
:1018A00009C08C2F0E94BB0B22C00E94C01E823236
:1018B00021F4F2CF81E090E01AC08C2F0E94250C19
:1018C000811114C0C43179F048F4CB3079F0C031C3
:1018D00009F05EC082E08093940108C0C93219F01B
:1018E000C83321F055C01092940152C081E081703C
:1018F00051C0C93279F108F5C43161F1A0F4C730A3
:1019000009F044C01092960184E180930D01C093C8
:101910000C018CE380930B0188E08093090188E23D
:101920008093080133C082EE8C0F863078F58C2FBF
:101930000E94290C8093930129C0CE34E9F020F451
:10194000CB3421F56AE013C0C13579F0C235F1F42A
:1019500061E00DC080919301882319F010929301EA
:1019600015C081E08093940115C061E006C08091AC
:1019700093010E94DE0A0AC06AE0809193010E94EE
:10198000540B04C01092940180E004C081E002C0B6
:1019900080E0ADCFCF91089580919D0180FF0BC075
:1019A00060910C0185E0689FB001112475956795E1
:1019B000759567952BC081FF09C060910C0185E08A
:1019C000689FB00111247595679520C082FF07C0FC
:1019D00060910C0185E0689FB001112417C09091BF
:1019E0009C019923D1F060910B01961788F7209103
:1019F0000C0185E0289F90011124929FA001939FE4
:101A0000500D112470E0CA010E94CF286038710582
:101A100040F46115710519F406C065E070E0862F89
:101A200008958FE7089581E0089580919D0180FFDA
:101A300008C06091090170E0759567957595679587
:101A400021C081FF06C06091090170E0759567951E
:101A500019C082FF04C06091090170E010C090912C
:101A60009B01992399F0609108019617A0F7809146
:101A70000901899FC001112470E00E94CF286038BD
:101A8000710540F46115710519F406C061E070E05C
:101A9000862F08958FE7089581E008958D3E21F403
:101AA0000E94CC0C819504C08E3E29F40E94CC0C7F
:101AB0008093A10108958F3E21F40E94CC0C819562
:101AC00004C0803F29F40E94CC0C8093A0010895AB
:101AD000893F19F40E94150D05C08A3F31F40E9418
:101AE000150D81958093A20108958B3F21F40E94EA
:101AF000150D819504C08C3F29F40E94150D80932B
:101B0000A30108959FE0980F983078F421E030E029
:101B1000A90102C0440F551F9A95E2F7CA0190919E
:101B20009F01892B80939F0108958D3F21F480911F
:101B30009D0181600BC08E3F21F480919D018260E8
:101B400005C08F3F29F480919D01846080939D01A1
:101B500008958D3E39F49091A10197FF35C0109200
:101B6000A10159C08E3E29F49091A1011916BCF330
:101B70002BC09091A0018F3E29F497FF25C01092B1
:101B8000A00149C0803F19F41916CCF31DC09091F3
:101B9000A201893F29F41916BCF41092A2013BC09E
:101BA0008A3F19F497FF10C0F8CF8B3F39F490911A
:101BB000A30197FF09C01092A3012DC08C3F21F40F
:101BC0009091A3011916BCF39FE0980F983080F410
:101BD00021E030E0A90102C0440F551F9A95E2F7B9
:101BE000CA01809590919F01892380939F0113C022
:101BF0008D3F21F480919D018E7F0BC08E3F21F49B
:101C000080919D018D7F05C08F3F29F480919D01BA
:101C10008B7F80939D018091A001811106C08091EE
:101C2000A101811102C010929C018091A201811139
:101C300006C08091A301811102C010929B010895FA
:101C40000E9466212091A001211104C02091A101D0
:101C5000222321F090939A01809399012091A2016F
:101C6000211104C02091A301222321F09093980117
:101C7000809397018EE991E00C942913EF92FF92E3
:101C80000F931F93CF93DF9300D000D000D0CDB738
:101C9000DEB786E0EEE9F1E0DE01119601900D92EB
:101CA0008A95E1F7E090A001F090A1010091A201D6
:101CB0001091A3011092A0011092A1011092A20113
:101CC0001092A301E11003C0FF2009F45DC08091D0
:101CD000990190919A010E947E21AC0190919C0102
:101CE000992339F020910D0130E02417350758F081
:101CF0004BC0209196018AE0289F9001112424175F
:101D0000350718F041C09F3F19F09F5F90939C01E9
:101D1000EE2061F00E94CC0C1E1414F09FEF01C065
:101D200091E0989F902D11249093A001FF2061F0E5
:101D30000E94CC0C1F1414F09FEF01C091E0989FFB
:101D4000902D11249093A1013091A0013323E1F053
:101D50002091A1012223C1F045EB3403C0011124DD
:101D6000992319F09093A00103C081E08093A00112
:101D700035EB2303C0011124992319F09093A1019D
:101D800003C081E08093A101011103C0112309F474
:101D90005DC080919701909198010E947E21AC01D5
:101DA00090919B01992339F020910A0130E024178A
:101DB000350758F04BC0209195018AE0289F90018B
:101DC00011242417350718F041C09F3F19F09F5F79
:101DD00090939B01002361F00E94150D101614F0E2
:101DE0009FEF01C091E0989F902D11249093A20144
:101DF000112361F00E94150D111614F09FEF01C020
:101E000091E0989F902D11249093A3013091A2010D
:101E10003323E1F02091A3012223C1F045EB3403E9
:101E2000C0011124992319F09093A20103C081E00D
:101E30008093A20135EB2303C0011124992319F0EB
:101E40009093A30103C081E08093A3018091A0013E
:101E500081110BC08091A101811107C08091A20165
:101E6000811103C08091A30181110E94200EEB8299
:101E7000FC820D831E8386E0FE013196AEE9B1E05F
:101E800001900D928A95E1F726960FB6F894DEBF81
:101E90000FBECDBFDF91CF911F910F91FF90EF90BB
:101EA0000895EEE9F1E086E0DF011D928A95E9F7F9
:101EB00010929C0110929B0110929D010895CF9366
:101EC000DF9397FF0DC0FB012281222349F0EC0133
:101ED0000E948A0FCE019F770E94E10F0E94C30FDC
:101EE00081E0DF91CF9108958CE090E00E940A2A72
:101EF00090E0A0E0B0E08093B9029093BA02A09382
:101F0000BB02B093BC0208956091B9028CE090E0EE
:101F10000C941E2A0E940213869581708093BE0243
:101F20009091B902913029F4882319F089E30E9435
:101F300009160E94C01E8093BD020E94D31E80918C
:101F4000B902813071F048F0823081F08430A1F420
:101F500086EE0E94091688E10DC082EE0E94DB1415
:101F60000BC088E193E00E94880606C082EE0E94C2
:101F7000DB1487E50E9409168FE39CE90197F1F7CE
:101F800000C0000008958091B902813039F078F0E6
:101F9000823069F0843089F488E20DC08CE20E94BE
:101FA00009168091BE02882341F089E304C082EEC5
:101FB0000E948A1502C00E9409168091BD020C94ED
:101FC000D01E0F931F93CF93DF938C01CCE0D0E012
:101FD000C8010C2E02C0969587950A94E2F78F707F
:101FE0000E94B9072497CC3F8FEFD80789F7DF917C
:101FF000CF911F910F9108950F931F93CF93DF936C
:10200000EC018B01FB018281882361F00E94C01EDC
:10201000CE01825E9C458530910520F48093B90203
:102020000E94840FB801CE01DF91CF911F910F91D3
:102030000C945F0F0F931F93CF93DF93C42FD22F76
:10204000FC0182818823C9F04093A6010E94662189
:102050009093A5018093A40180E28C0F883008F052
:1020600057C0C77081E001C0880FCA95EAF7DF91B9
:10207000CF911F910F910C9412168091A6014813D5
:1020800030C08091A4019091A5010E947E21883CDE
:10209000910538F510E21D0FCD17B9F080E28C0FD5
:1020A000883040F4C77081E001C0880FCA95EAF714
:1020B0000E941916183028F581E09D2F977001C0F5
:1020C000880F9A95EAF70E941216802F0E9409162F
:1020D0001830F0F4D77081E001C0880FDA95EAF784
:1020E0000AC080E28C0F883098F4C77081E001C08C
:1020F000880FCA95EAF7DF91CF911F910F910C9449
:102100001916802FDF91CF911F910F910C94091612
:10211000DF91CF911F910F9108950F939C01CB01F7
:10212000243F4CE5340731F188F4293DFCE53F07B5
:10213000D9F02A3D4CE5340779F1283D3C45A9F515
:1021400006E221EE41EE68ED7CE52BC0263FFCE582
:102150003F07E1F0A8F0273F3C4539F507E225EEBF
:1021600046EE67EF7CE51DC007E225EE45EE69ED22
:102170007CE517C006E221EE40EE64EF7CE511C07D
:1021800007E225EE44EE65EF7CE50BC006E221EEAA
:1021900042EE66EF7CE505C008E221E045EE6AED1F
:1021A0007CE50E941A1080E008C0FC01828188232F
:1021B00019F01092A60101C081E00F910895CF930C
:1021C000DF93EC01FB018281882309F41FC1C23037
:1021D000FCE5DF0708F41BC1C6319CE5D90738F0E0
:1021E0009E012B5F3C452930310508F010C10E944B
:1021F0008A1F90939C0280939B02C031ECE5DE071E
:1022000009F4C3C008F041C0C8308CE5D80709F410
:102210009AC0F0F4C430ECE5DE0709F487C068F436
:10222000C2308CE5D80709F477C0C330DC4509F02B
:10223000E3C080919B02826076C0C630ECE5DE0789
:1022400009F46EC008F07BC080919B0288606BC06F
:10225000CC308CE5D80709F485C068F4CA30ECE5C9
:10226000DE0709F474C008F079C00E942619809135
:102270009B02806858C0CE308CE5D80709F476C040
:1022800008F07FC080919B028BC0CC3FECE5DE075D
:1022900009F44FC018F5C3318CE5D80709F47DC0A7
:1022A00078F4C131ECE5DE0709F473C0C231DC45D6
:1022B00009F0A2C00E94261980919B028F7733C03B
:1022C000C5318CE5D80709F472C008F486C0CB3F4D
:1022D000DC4509F091C080919C023EC0C115FDE52E
:1022E000DF0709F45FC058F4CE3F9CE5D90709F435
:1022F00044C008F43FC080919C0282602DC0C2306F
:10230000FDE5DF0709F475C008F45DC0C330DD45A5
:1023100009F072C080E06EC080919B02816003C0B2
:1023200080919B02806180939B0266C080919B029A
:1023300011C080919C02826080939C025DC080915C
:102340009B028062F0CF80919B028064ECCF8091F1
:102350009B0288608460E7CF8160EECF80919B0212
:102360008E7FE1CF80919B028D7FDDCF80919B029C
:10237000877FD9CF80919C0218C080919C028D7F6D
:10238000DBCF80919B028F7ECECF80919B028F7D91
:10239000CACF80919B028F7BC6CF80919B02877FA3
:1023A0008B7FC1CF80919C028D7F8E7FC5CF809126
:1023B0009B0282FB222720F991E0922790FB82F971
:1023C00090FB83F9B0CF80919C02982F90959170EB
:1023D0008E7F892B90FB81F9AFCF0E9426198091C7
:1023E0009B0287FB222720F991E0922790FB87F937
:1023F0009ACF81E00E941E2080919B0290919C02C6
:102400000E949B1F0E94261980E001C081E0DF919D
:10241000CF910895CF93DF9386319C4541F5EB0131
:102420000E94C01E982F8A8120910E0130910F01C9
:10243000882379F09A7A81E009F480E08093A701FB
:10244000911102C069E201C065E3C9010E94B9208F
:102450000AC08091A701811102C069E201C065E351
:10246000C9010E94C4200E94081F80E001C081E0D1
:10247000DF91CF9108951092B9008CE08093B8005D
:102480000895EF92FF920F931F93CF93DF93182F2E
:10249000EB011092BC0084EA8093BC000E9466218C
:1024A0007C018091BC0087FD0EC0CF3F8FEFD80725
:1024B000C1F30E9466218E199F098C179D0788F32E
:1024C0008EEF9FEF2EC08091B900887F883041F059
:1024D0008091B900887F803119F08FEF9FEF21C084
:1024E0001093BB0084E88093BC000E9466218C019D
:1024F0008091BC0087FD0CC0CF3F8FEFD807C1F3A0
:102500000E946621801B910B8C179D0788F3D8CF02
:102510008091B900887F883111F08034F1F680E035
:1025200090E0DF91CF911F910F91FF90EF90089570
:102530000F931F93CF93DF93EB018093BB0084E84D
:102540008093BC000E9466218C018091BC0087FDB5
:102550000EC0CF3F8FEFD807C1F30E946621801BCA
:10256000910B8C179D0788F38EEF9FEF0CC0209185
:10257000B900287F81E090E0283211F480E090E0FB
:10258000919581959109DF91CF911F910F910895B8
:102590000F931F93CF93DF93EC0184E88093BC00EB
:1025A0000E9466218C018091BC0087FD0EC0CF3F48
:1025B0008FEFD807C1F30E946621801B910B8C1707
:1025C0009D0788F38EEF9FEF03C08091BB0090E0E2
:1025D000DF91CF911F910F91089584E98093BC0002
:1025E00008959093AD018093AC010895E091AC0102
:1025F000F091AD01309721F00190F081E02D099428
:1026000080E00895E091AC01F091AD01309711F4B4
:1026100080E008950190F081E02D09950895E09102
:10262000AC01F091AD01309799F020911A0122236D
:1026300059F020919B0227FF07C0DC012C911196D5
:102640002C93119725E02C930280F381E02D0994BF
:102650000895E091AC01F091AD01309739F022E09E
:10266000DC012C930480F581E02D099408952091DC
:10267000AA013091AB012817390771F09093AB0193
:102680008093AA01E091AC01F091AD01309721F067
:102690000680F781E02D099408952091A8013091DA
:1026A000A9012817390771F09093A9018093A80117
:1026B000E091AC01F091AD01309721F00084F185FB
:1026C000E02D099408950E9472216093C1017093D6
:1026D000C2018093C3019093C4016093BD017093C4
:1026E000BE018093BF019093C001089585B78068B3
:1026F00085BF85B7806885BF089581E008950C94F3
:102700007D1308950C9481130C9481130C948413FD
:102710000C9481130C9488130C9481130E947613EB
:1027200085E79FE10E94E5210E948C130C948A1397
:102730000E9482130C9481130E945D210E94F10972
:102740000C9486139F92AF92BF92CF92DF92EF923A
:10275000FF920F931F93CF93DF93CDB7DEB72A97E6
:102760000FB6F894DEBF0FBECDBF0E94020A8111E2
:102770000E9463138FEAA82E81E0B82E00E010E0DB
:10278000902E802F0E94E309D82EF501C1905F01A1
:10279000C826B1F40F5F1F4F0E30110589F78FEF78
:1027A00089838A831B820E9466218160782F9D83A2
:1027B0008C8349815A816B818D810E9481142FC045
:1027C0008091730281FD0E94E909E12CFF24F394BA
:1027D0008C2D8F21F1F00E947F13882399F0EE82D7
:1027E0009F82DF2081E009F480E088870E946621D3
:1027F0008160782F9A8789874E815F8168858A8575
:102800000E948114F801E155FE4F8081F826F08284
:1028100006C0E394FF0CF6E0EF12DACFBBCF0E94C4
:102820003E0E0E94F6129091AE018917B9F00E94F7
:10283000F6128093AE012A960FB6F894DEBF0FBE53
:10284000CDBFDF91CF911F910F91FF90EF90DF905F
:10285000CF90BF90AF909F900C94CA072A960FB666
:10286000F894DEBF0FBECDBFDF91CF911F910F91C6
:10287000FF90EF90DF90CF90BF90AF909F90089522
:10288000DC0111962C9111978C91482F50E061E05A
:1028900070E001C0660F8A95EAF712968C91129744
:1028A00030E0882319F08091D50105C0F901EB5380
:1028B000FE4F808186238823E1F086E0829FF0012D
:1028C000839FF00D11244E0F5F1F440F551FFA0117
:1028D000E157FE4FE4911196EC931197FA01E257FC
:1028E000FE4FE491EC93F901EB53FE4F8081682B8E
:1028F00006C0F901EB53FE4F609580816823608329
:102900000895CF93DF93CDB7DEB72B970FB6F8942A
:10291000DEBF0FBECDBF4F83588769877A878B870D
:1029200061110E94E31E9F8188852A853B85232BA8
:1029300031F08F3F31F481E09F3F19F403C081E013
:1029400001C080E080FD04C0CE0107960E944014C3
:10295000DE01119686E0FD0111928A95E9F785E086
:10296000FE01379601900D928A95E1F749815A81CF
:102970006B817C818D819E810E94DF1B2B960FB61F
:10298000F894DEBF0FBECDBFDF91CF910895FC015B
:10299000808191810E94381E92959F70963051F4EB
:1029A000863F41F08091D50191E089278093D50140
:1029B0009093D4010895CF93882309F4A9C0C82F18
:1029C0008238C1F40E94F61281FDA2C069E38091B1
:1029D0000E0190910F010E94B9200E94081F2FEF55
:1029E00081EE94E0215080409040E1F700C000006B
:1029F00069E319C0833801F50E94F61280FD88C092
:102A000063E580910E0190910F010E94B9200E9410
:102A1000081F2FEF81EE94E0215080409040E1F7B5
:102A200000C0000063E580910E0190910F010E94AB
:102A3000C420CF910C94081F8438C1F40E94F61270
:102A400082FD66C067E480910E0190910F010E94A3
:102A5000B9200E94081F2FEF81EE94E021508040A2
:102A60009040E1F700C0000067E4DDCF8CEF8C0FF1
:102A7000813AF8F48C2F0E94340C811149C06C2FDC
:102A800080910E0190910F010E943920882349F016
:102A90006C2F80910E0190910F010E94C4200E9422
:102AA000081F6C2F80910E0190910F010E94B92098
:102AB000C0CF80E28C0F883048F4C77081E001C03D
:102AC000880FCA95EAF70E94C31EB3CFEBE5EC0F5F
:102AD000E33040F4F0E0EC57FE4F808190E0CF917E
:102AE0000C943713E8E5EC0FE73150F4F0E0EE0F0B
:102AF000FF1FEA5AFE4F80819181CF910C944D13B4
:102B0000CD3E30F08C2F0E944E0DCF910C94200EB4
:102B1000CF910895882309F464C0823879F40E9423
:102B2000F61281FF5EC069E380910E0190910F0162
:102B30000E94B9200E94081F69E310C08338B1F4D5
:102B40000E94F61280FF4DC063E580910E019091C6
:102B50000F010E94B9200E94081F63E580910E01B9
:102B600090910F010E94C4200C94081F843879F4BE
:102B70000E94F61282FF35C067E480910E019091A9
:102B80000F010E94B9200E94081F67E4E7CF9CEF65
:102B9000980F913A10F4682FE1CF90E2980F983097
:102BA00050F4877091E001C0990F8A95EAF7892F58
:102BB0000E94C91ED9CF9BE5980F933020F480E086
:102BC00090E00C94371398E5980F973120F480E04B
:102BD00090E00C944D138D3E20F00E94A90D0C94B2
:102BE000200E08951F93CF93DF93182FEB010E94BF
:102BF000DB14209741F08FE99FE00197F1F700C0C7
:102C000000002197F6CF812FDF91CF911F910C9477
:102C10008A15893319F060E070E002C060E570E069
:102C20000C94F215882321F00E94C31E0C94081FF7
:102C30000895882321F00E94C91E0C94081F08954E
:102C40008F929F92AF92BF92CF92DF92EF92FF92BC
:102C50000F931F93CF93DF936C01C62F172FFC01A7
:102C6000D281058102950F700E94981E8823B9F0C9
:102C7000DD23A9F0812F807F803441F090E29C0F0A
:102C8000983068F0803611F4C63F49F082E00E9427
:102C9000581F0E94981E91E0E82EE92601C0E12C01
:102CA000B12EB2949FE0B9228B2D90E08C3091052B
:102CB00008F01FC2FC01E456FF4F0C94E328012FDB
:102CC0000F70812F807F11F00295007FDD2399F036
:102CD000002309F495C180E28C0F883010F0C111F7
:102CE00004C0802F0E94C31E03C0802F0E94D61EE6
:102CF0000E94081F85C18C2F0E948A15002309F4A9
:102D0000F8C180E28C0F883010F0C11104C0802F10
:102D10000E94C91E03C0802F0E94DC1E0E94081F53
:102D2000E8C1912F9F70812F807FF92E803219F09A
:102D3000F29480EFF822CC2319F0C130C9F024C0FE
:102D4000DD2371F0002341F0013031F40E94E91ECF
:102D50008F290E94F11ECDC10E94E91E8F290EC04D
:102D6000002319F0013009F4C4C10E94FE1E1EC0E8
:102D7000DD2339F0023008F0BCC18F2D0E941216FD
:102D8000B8C10111B6C112C0DD2319F00023A9F3A7
:102D900037C1002359F0C93309F043C1FFEF27EED3
:102DA00083E0F15020408040E1F739C18F2D0E942F
:102DB00019169FC1812F86958695837019F08130F1
:102DC00071F097C1DD2331F08C2F912F93700E9409
:102DD000371397C180E090E00E9437139BC1DD2339
:102DE00031F08C2F912F93700E944D138AC180E097
:102DF00090E00E944D138EC18C2FDD2319F00E94AC
:102E00004E0D02C00E94A90D0E94200E7AC1812F92
:102E1000837009F048C0D11170C12C2F22952695DE
:102E20002770220F220F6C2F6F70862F90E0A0E08A
:102E3000B0E0022E04C0880F991FAA1FBB1F0A947E
:102E4000D2F7C4FF10C04FE050E060E070E004C073
:102E5000440F551F661F771F2A95D2F7409550954E
:102E60006095709503C040E050E0BA01212F26958F
:102E7000269523704A015B01882A992AAA2ABB2A2F
:102E8000C501B401223049F058F4213019F00E94F4
:102E9000B31C33C10E94A11C30C10E94C51C2DC1AE
:102EA0000E949F1C2AC1DD2319F0812F817001C06F
:102EB0008695882309F421C12C2F22952695277009
:102EC000220F220F6C2F6F70862F90E0A0E0B0E0F1
:102ED000022E04C0880F991FAA1FBB1F0A94D2F7A5
:102EE000C4FF10C04FE050E060E070E004C0440F49
:102EF000551F661F771F2A95D2F74095509560950C
:102F0000709503C040E050E0BA01212F2695269528
:102F100023704A015B01882A992AAA2ABB2AC50183
:102F2000B401223049F058F4213019F00E94781D84
:102F3000E4C00E94661DE1C00E948A1DDEC00E949E
:102F4000D91CDBC0012F0F70DD2339F0802F0E94C8
:102F5000FF1C8C2F0E941216D0C08C2F0E941916B5
:102F6000802F0E94201DC9C0C23FF9F028F4C03F45
:102F700041F0C13F99F040C0C33FF1F0C43F31F18F
:102F80003BC0DD2339F00111B4C0812F8F710E9445
:102F9000451DAFC0023008F0ACC0F7CFDD2339F0DB
:102FA000812F8F710E94FF1CA4C0DD23C9F3812FE4
:102FB0008F710E94201D9DC0DD2329F0812F8F710C
:102FC0000E94EA1C96C00E94E51C93C0DD2351F0CC
:102FD000012F0F71802F0E94FF1C63E0802F0E9441
:102FE0003D1F87C081E00E94581F023008F481C055
:102FF00082E00E94581F7DC0DD2331F0002381F262
:103000008C2F0E94DB1475C0002389F2C93349F468
:103010002FEF87EE93E0215080409040E1F700C011
:1030200000008C2F0E948A1564C08C2F90E0FC0158
:10303000E05FF109E730F10598F5E855FF4F0C9492
:10304000E328DD2309F466C09091D50181E089274A
:1030500005C0D093D50155C081E08D278093D5015F
:1030600050C0D1114EC081E08093D50153C0D11121
:1030700048C01092D5014EC0DD2319F00E94701E89
:1030800040C00E947C1E46C0DD2339F08091D401EF
:103090008823D1F21092D40134C00023A9F23AC09F
:1030A0008091D4010023C1F0882341F09091D50193
:1030B00081E089278093D5011092D4018C2FDD23E4
:1030C00019F00E94DB141DC00E948A1586E0F601EB
:1030D00011928A95E9F71EC0882399F0D11111C089
:1030E0009091D50181E089278093D5011092D40178
:1030F00011C088EF8B0D843020F40E94F6120E94DC
:10310000CA07DD2339F0107F103611F4C63F11F0E5
:103110000E948A1EEE20E9F00E946C1E80FD19C0FC
:10312000F60112820E94661E0E94FF1CC6010E94C8
:10313000CE180E94661EDF91CF911F910F91FF90D4
:10314000EF90DF90CF90BF90AF909F908F900C94B6
:10315000201DDF91CF911F910F91FF90EF90DF9095
:10316000CF90BF90AF909F908F9008950F931F9333
:10317000CF93DF93EC01688179818A810E94431E9D
:103180008C010E949C1D0E948D1CB801CE010E94E2
:103190002016DF91CF911F910F910895CF93DF9368
:1031A000EC01988189812B813C81232B31F08F3F69
:1031B00031F481E09F3F19F403C081E001C080E059
:1031C00080FD19C0CE010E94FA0681110CC00E9438
:1031D000981E882381F08A81882369F082E0DF913C
:1031E000CF910C94581FCE010E94B618CE01DF91EA
:1031F000CF910C94D706DF91CF910895882321F0C9
:103200000E94D61E0C94081F0895882321F00E9466
:10321000DC1E0C94081F089580E090E00E94371394
:1032200080E090E00E944D130E94E31E0E94E61E83
:103230000E94081F0E94510F0C94200E80910E01D5
:1032400090910F010E94CF200C940C190E94D31E64
:103250000C941E19E92FE295EF704E2F50E0FA0101
:103260003297EE30F105B0F4E155FF4F0C94E328AE
:10327000803F91F018F4883E68F40EC0843F51F40A
:103280000BC0883E48F0813F29F406C093FB882795
:1032900080F9089580E0089581E008950E94381E25
:1032A0000E942A190895CF93DF9300D000D01F9277
:1032B000CDB7DEB70F900F900F900F900F90DF916A
:1032C000CF910895CF93DF9300D000D000D0CDB739
:1032D000DEB726960FB6F894DEBF0FBECDBFDF91E6
:1032E000CF9108951F93CF93DF93C091D60116E03D
:1032F0008091D701C81799F0D0E01C9FF0011D9F65
:10330000F00D1124E852FE4F40815181628173819A
:10331000848195810E9462192196C770E9CFDF915F
:10332000CF911F9108954091080250910902609138
:103330000A0270910B0280910C0290910D020C9484
:1033400062190F931F93CF93DF9380910D028295A3
:103350008F7009F05DC080910A02882309F458C07B
:103360008091D6011091D7016091080270910902F5
:10337000C0910B02D0910C0291E06F3F09F090E0F8
:10338000292F06E0811709F443C0209721F07F3FE1
:1033900021F030E003C031E001C0322F90E030FD79
:1033A00034C0089FF001099FF00D1124DF01A852DD
:1033B000BE4F11963C911197371327C03C9136139D
:1033C00024C012963C91129731111FC013964D9153
:1033D0005C9114974C1B5D0B483C5105B0F48091F7
:1033E0000D028F70806180930D02E352FE4F808149
:1033F0008F708061808388E092E00E94CE18DF9118
:10340000CF911F910F910C94721901968770BACFCA
:10341000DF91CF911F910F9108959F92AF92BF922C
:10342000CF92DF92EF92FF920F931F93CF93DF9390
:10343000CDB7DEB761970FB6F894DEBF0FBECDBF34
:103440008C0185E0F801DE011D9601900D928A95B0
:10345000E1F7F80140815181E2809091080260918A
:10346000090220910B0230910C022115310531F037
:103470006F3F31F481E09F3F19F403C081E001C048
:1034800080E0F82FF1709F2E80FD46C1F801A380E7
:10349000B48088E0C82E82E0D82EF0900A02F501B0
:1034A000E21BF30BFF2009F4DFC080910D02E83C22
:1034B000F10508F09BC0282F207F09F052C0561359
:1034C00013C0491311C0FE2CE1100EC08F70806133
:1034D00080930D020E949319C6010E94CE1880911C
:1034E0000D02F801858358C1AB2831F05F3F31F4FC
:1034F00081E04F3F19F403C081E001C080E080FD0E
:1035000003C081E08E2502C080E090E0F82FF170CA
:10351000FF2E80FF1CC08091D6012091D70136E09C
:10352000821709F417C190E0389FF001399FF00D20
:103530001124E852FE4F6181561306C06081461384
:1035400003C06281E61203C001968770E9CFFE2CAA
:10355000EE2009F421C180910D02816080930D025B
:103560005AC0561306C0491304C0E11002C0F80146
:103570009FC04D875E878D859E850E944E1988234A
:1035800079F1EE2069F120910D02822F82958F70E2
:1035900090E0029774F08091080290910902988758
:1035A0008F831986BB86AA862C87CE0107960E9438
:1035B000CE1886E0F801A8E0B2E001900D928A955D
:1035C000E1F70E94A1190E9493190DC0561729F125
:1035D0004D875E878D859E850E944E1981112CC076
:1035E000C8010E94CE18FF24F394D6C0282F207F54
:1035F00069F77A2DB98AA88A6E2D89890E94531994
:1036000088E092E00E94CE1886E0F60111928A9539
:10361000E9F70E949319F12CBFC04913D9CFE110EB
:10362000D7CFF8018583C8010E94CE1886E0F60145
:1036300011928A95E9F7B0C0EE2091F220910D0227
:10364000822F82958F7090E002970CF4B2CF809118
:103650000802909109029A8389831B82BD82AC8201
:103660002E83CE010196A3CFE83CF10508F047C0B8
:10367000FE2CEE2009F4B4CF561330C049132EC0EF
:1036800020910D0220FD21C0822F82958F70482F3E
:1036900050E041155105C9F0F80125834F3051051F
:1036A00041F08F5F982F9295907F822F8F70892B9A
:1036B0008583C8010E94CE1886E0F801A8E0B2E038
:1036C00001900D928A95E1F742C086E0F801A8E0EA
:1036D000B2E001900D928A95E1F75EC04D875E875A
:1036E0008D859E850E944E19811163CF80910D02B8
:1036F000816080930D02C8010E94CE184DC07A2DC2
:10370000B98AA88A6E2D89890E94531986E0F6012C
:1037100011928A95E9F71BC0EE2009F461CF4D871D
:103720005E878D859E850E944E19F82E882309F4A8
:1037300057CF86E0F801A8E0B2E001900D928A959B
:10374000E1F788E092E00E94C7140E94A1190E944C
:10375000931922C04D875E878D859E850E94381EF5
:10376000292F22952F70223028F49F7039F0811173
:1037700005C00BC0243028F49F7049F4805E883067
:1037800020F0C8010E94CE189F2CF92C05C0F8012A
:103790009581907F99F7F9CF8F2D61960FB6F894A8
:1037A000DEBF0FBECDBFDF91CF911F910F91FF9074
:1037B000EF90DF90CF90BF90AF909F9008951F93B0
:1037C000CF93DF93CDB7DEB72C970FB6F894DEBF5B
:1037D0000FBECDBF4F83588769877A878B879C87B9
:1037E000CE0107960E940D1A8823D1F09F8188850B
:1037F0002A853B85232B31F08F3F31F481E09F3FB9
:1038000019F403C081E001C080E080FD47C04F8112
:10381000588569857A858B859C850E9462193EC092
:1038200086E0FE013796DE01119601900D928A9591
:10383000E1F7FF81E8856A857B856115710531F0C7
:10384000EF3F31F481E0FF3F19F403C081E001C094
:1038500080E080FD23C02091D70130E0C9010196AE
:10386000877099274091D60150E084179507F1F1B0
:10387000F983EA837D836C8396E0929FD001939FC6
:10388000B00D1124A852BE4FFE01319601900D9249
:103890009A95E1F78093D7010E94721916E0809102
:1038A000D6019091D701891771F1189FC001112499
:1038B00088529E4F0E940D1A882329F1E091D6016B
:1038C0001E9FF0011124E852FE4F40815181628118
:1038D0007381848195810E9462198091D60190E064
:1038E0000196877099278093D601D9CF0E94261917
:1038F0001092D7011092D601E8E0F2E086E0DF01F5
:103900001D928A95E9F72C960FB6F894DEBF0FBE8C
:10391000CDBFDF91CF911F910895089508950C9424
:103920008E1C0C948F1C0E94911C60934902709312
:103930004A0280934B0290934C020C940C190C9405
:10394000931C0F931F930091490210914A022091FA
:103950004B0230914C02602B712B822B932B1F91C9
:103960000F910C94931C0F931F9300914902109197
:103970004A0220914B0230914C0260237123822332
:1039800093231F910F910C94931C0F931F930091FD
:10399000490210914A0220914B0230914C0260275B
:1039A0007127822793271F910F910C94931C0C94DD
:1039B0008E1C0E94D71C6093450270934602809330
:1039C0004702909348020C940C1960E070E0CB0120
:1039D0000C94D91C0F931F9341E050E060E070E01D
:1039E0008A019B0104C0000F111F221F331F8A95FB
:1039F000D2F7C901B8011F910F910C94D91C0F93F4
:103A00001F9341E050E060E070E004C0440F551F98
:103A1000661F771F8A95D2F78091450290914602E2
:103A2000A0914702B09148028A019B01082B192BF3
:103A30002A2B3B2BC901B8011F910F910C94D91C63
:103A40000F931F9341E050E060E070E004C0440F2A
:103A5000551F661F771F8A95D2F740955095609540
:103A600070958091450290914602A0914702B091D5
:103A700048028A019B01082319232A233B23C901F9
:103A8000B8011F910F910C94D91C0F931F9341E023
:103A900050E060E070E004C0440F551F661F771FC0
:103AA0008A95D2F78091450290914602A0914702F3
:103AB000B09148028A019B01082719272A273B2732
:103AC000C901B8011F910F910C94D91C0F931F933A
:103AD0000091450210914602209147023091480220
:103AE000602B712B822B932B1F910F910C94D91C5F
:103AF0000F931F93009145021091460220914702B7
:103B00003091480260237123822393231F910F91E8
:103B10000C94D91C0F931F930091450210914602FB
:103B2000209147023091480260277127822793270E
:103B30001F910F910C94D91C0895292F220F920FD9
:103B4000990F890FE82FE695E695E695877051E085
:103B500001C0550F8A95EAF785E0E89FF00111242E
:103B6000E25FFD4F20E030E070E04081CB01022EAB
:103B700002C0969587950A94E2F781708195842713
:103B80008523842781932F5F3F4F2530310569F7C7
:103B90000895292F220F920F990F890F682F66958C
:103BA00066956695982F977085E0689FB0011124FF
:103BB00040E050E080E0FB01E40FF51FE25FFD4FC5
:103BC000208130E0092E02C0369527950A94E2F74D
:103BD00021703327042E01C0220F0A94EAF7822BAA
:103BE0004F5F5F4F4530510531F70895BF92CF9237
:103BF000DF92EF92FF920F931F93CF93DF938C018D
:103C0000C0904502D0904602E0904702F0904802F2
:103C10008091490290914A02A0914B02B0914C02CE
:103C2000C82AD92AEA2AFB2ACFE1D0E0D701C60167
:103C30000C2E04C0B695A795979587950A94D2F750
:103C400080FD04C0219790F7B12C07C0BC2EB801AD
:103C50008C2F0E94E6070197A9F38B2DDF91CF915E
:103C60001F910F91FF90EF90DF90CF90BF9008953C
:103C7000CF93DF93EC010E94F61DBE010E94E60780
:103C8000DF91CF9108951F93CF93DF93EB01909134
:103C9000D301992321F0CB010E94381E13C0882341
:103CA00049F0CB010E94F61D182F682FCE010E940B
:103CB0009D1D04C0CB010E94C91D182FBE01812F7C
:103CC0000E94E607DF91CF911F91089580914E02E7
:103CD000859585958595089580914E028770089504
:103CE00082E080934D0281E08093D5010895109287
:103CF0004D021092D501089580914D02823019F441
:103D000081E080934D0280914D02833011F40C9438
:103D1000771E089580914D02823019F483E08093DC
:103D20004D0280914D02813011F40C94771E08955C
:103D300090914E02977081E009F480E0089590918F
:103D40009C0292FB222720F9281751F080FB92F960
:103D500090939C0280919B0290919C020C949B1FDB
:103D6000089580919C0282FB882780F991E0892741
:103D70000C949F1E81E00C949F1E80E00C949F1E6B
:103D800080917202089590917202892B8093720241
:103D9000089580959091720289238093720208950C
:103DA00080937202089510927202089590917102A8
:103DB000892B8093710208958095909171028923D7
:103DC000809371020895109271020895109270020A
:103DD000089580914F02089508950C94EC1E0C9460
:103DE000ED1E90919C0292FD08C090914F02981791
:103DF00021F080934F020C94EF1E089580914F02A2
:103E0000882329F010924F0280E00C94EF1E089551
:103E1000E0910E01F0910F01809172028083E09198
:103E20000E01F0910F01908180917102892B8083A6
:103E3000E0910E01F0910F01908180917002892B29
:103E4000808380914F02882381F0E0910E01F091F0
:103E50000F019081892B808380910E0190910F0139
:103E60000E94232081110E94FE1E80910E019091DC
:103E70000F010C940F130C94EC1E90919C0292FD78
:103E800010C098E0899F90011124262B20934E02A8
:103E90000E94FF1C80914E028595859585950C9416
:103EA0003B1F0C94FF1C10924E0280E00C943B1FB1
:103EB00020914E028095822380934E02982F977016
:103EC00041F430E0482F082E000C550B241735071D
:103ED00021F490919C0292FF07C085958595859568
:103EE0000E94201D0C94531F089580E0089580E0E7
:103EF00090E00E94182A21E08A3E9E4F09F020E0BF
:103F0000822F089582E090E00C940A2A83E090E0EA
:103F10000C940A2ACF9384E090E00E940A2AC82FCA
:103F200082E290E00E940A2A2C2F30E0A901582B4F
:103F3000CA01CF910895CF93C92F682F84E090E0F4
:103F40000E941E2A6C2F82E290E0CF910C941E2AD0
:103F50008FE090E00C94122AAB01BC018FE090E05E
:103F60000C94302AAB01BC0183E190E00C94302A20
:103F700060E070E0CB010C94B21F6AEE7EEF80E04F
:103F800090E00E943C2A60E082E090E00E941E2ABD
:103F900060E083E090E00E941E2A10924902109295
:103FA0004A0210924B0210924C0260E084E090E0D2
:103FB0000E941E2A60E082E290E00E941E2A60E0D9
:103FC00085E090E00E941E2A60E086E090E00E947A
:103FD0001E2A6FEF87E090E00E941E2A40E050E02A
:103FE000BA0188E090E00E94302A60E08DE090E025
:103FF0000E941E2A40E050E0BA0188E190E00E9451
:10400000302A60E087E190E00E941E2A40E050E004
:10401000BA018CE190E00E94302A60E070E080E21A
:1040200090E00E943C2A40E050E0BA0188E190E034
:104030000E94302A0C9417060C94BD1F682F8EE046
:1040400090E00C941E2AFC01329680911A0188237C
:1040500031F080919B0287FF02C09EE101C096E093
:1040600080E0915028F021912223D9F38F5FF9CF7E
:104070000895662351F120911A012223E9F020913D
:104080009B0227FF19C0462F4695469546954E310F
:10409000E0F4677021E030E002C0220F331F6A9520
:1040A000E2F7FC01E40FF11D828190E0282339231F
:1040B00081E0232B69F409C0FC0132960896219116
:1040C000621729F0E817F907D1F780E0089581E039
:1040D00008959C01FC0132969FEF80E041914617C4
:1040E00089F09F3F19F4411101C0982F8F5F8630EE
:1040F000A9F79F3F39F0F901E90FF11D97FDFA95F6
:104100006283089508959C012A5F3F4FFC0142811C
:10411000461301C01282019682179307B9F70895DA
:10412000262F2695269526952E3168F4FC01E20F60
:10413000F11D677021E030E001C0220F6A95EAF7B7
:104140008281282B22830895262F26952695269551
:104150002E3170F4FC01E20FF11D677021E030E0B8
:1041600001C0220F6A95EAF72095828128232283D5
:10417000089520911A01222329F020919B0227FD06
:104180000C9490200C94692020911A01222329F08C
:1041900020919B0227FD0C94A4200C948320209155
:1041A0001A01FC013296222331F080919B0287FF95
:1041B00002C08EE101C086E0DF011D928A95E9F719
:1041C000089508950C94E120CF930E94FF040E946B
:1041D000020A0E94E220C0E08C2F0E94E3098111B4
:1041E00004C0CF5FCE30C1F701C081E0CF91089508
:1041F0000C94E1200C94F8208091C702843049F19E
:104200000E94FA2080E00E94CA071092740220E403
:1042100088E190E00FB6F894A895809360000FBEF7
:104220002093600083B7817F846083BF83B7816000
:1042300083BF7894889583B78E7F83BF0FB6F89439
:10424000A895809160008861809360001092600062
:104250000FBE08950C94E1200E9426190E94F612C8
:104260000E94CA070C942A211F920F920FB60F9238
:1042700011248F939F93AF93BF9380917402811108
:1042800013C08091BF029091C002A091C102B09171
:10429000C2024196A11DB11D8093BF029093C0023E
:1042A000A093C102B093C202BF91AF919F918F9131
:1042B0000F900FBE0F901F90189582E084BD93E081
:1042C00095BD9AEF97BD80936E0008952FB7F8942F
:1042D0008091BF029091C002A091C102B091C20230
:1042E0002FBF08952FB7F8946091BF027091C0025C
:1042F0008091C1029091C2022FBF08959C014FB7D7
:10430000F8948091BF029091C002A091C102B09137
:10431000C2024FBF821B930B089578941F920F9295
:104320000FB60F9211248F939F93AF93BF938091F9
:10433000BF029091C002A091C102B091C202019649
:10434000A11DB11D8093BF029093C002A093C10232
:10435000B093C202BF91AF919F918F910F900FBE0A
:104360000F901F901895F89481E08093E00080E210
:104370008093D800E9ECF0E010828FE19EE4019791
:10438000F1F700C000001DBA109268001CBC10BEFE
:104390001FBA10927A0010926E0010926F00109265
:1043A0007100109272001082ECEBF0E0108214B8F1
:1043B00017B81AB81DB810BA108215B818B81BB8BB
:1043C0001EB811BA0C94003F089590938901809310
:1043D00088010895809195020895CF93DF9300D0CE
:1043E0001F92CDB7DEB79091C702943019F589833B
:1043F0007B836A8382E08093E9008FEF9091E800ED
:10440000815095FD06C095ED9A95F1F70000811158
:10441000F5CF8091E80085FF0DC040E050E063E0FB
:1044200070E0CE0101960E941D248091E8008E77F5
:104430008093E8000F900F900F90DF91CF91089537
:10444000BC0184E00C94ED21BC0183E00C94ED21CF
:1044500022E02093E9002FEF3091E800215035FD54
:1044600006C035ED3A95F1F700002111F5CF209106
:10447000E80025FF0BC040E050E066E070E00E94DD
:104480001D248091E8008E778093E8000895CF93F3
:10449000DF9320911A01222339F020919B0227FFFC
:1044A00003C060E222E002C068E021E02093E9005E
:1044B0002FEF3091E800215035FD06C035ED3A95DB
:1044C000F1F700002111F5CF2091E80025FF1DC074
:1044D000EC0180911A01811105C040E050E068E0D4
:1044E00070E003C070E040E050E0CE010E941D2467
:1044F0008091E8008E778093E80080E2FE01A5E7D6
:10450000B2E001900D928A95E1F7DF91CF91089585
:104510008091C602811109C00E94AE250E940B261F
:104520008091E20084608093E20008951092C602B8
:10453000089508950895089542E061EC81E00E9495
:10454000272542E261EC82E00C9427258091C90284
:10455000833009F460C030F4813071F0823009F4A6
:1045600099C008958A3009F485C08B3009F46BC076
:10457000893009F0A7C020C08091C802813A09F0B3
:10458000A1C08091E800877F8093E8008091CC02F1
:104590009091CD02892B21F460E285E792E003C07F
:1045A00060E080E090E070E00E9468248091E80084
:1045B0008B778093E80008958091C802813209F0DA
:1045C00081C08091CC029091CD02029708F07AC010
:1045D0008091E800877F8093E8008091E80082FD69
:1045E00005C08091C7028111F8CF6CC02091F30003
:1045F0008091F20090E0922B029729F48091F100D3
:104600008B7F813021F48091F1008093950280911D
:10461000E8008B7753C08091C802813A09F052C0FC
:104620008091CC029091CD02892B09F04BC08091F2
:10463000E800877F8093E8008091E80080FFFCCF4E
:1046400080911A0136C08091C8028132D9F58091DB
:10465000CC029091CD02892BA9F58091E800877F4B
:104660008093E8000E945C258091CA0280931A0121
:104670000C9426198091C802813221F58091E800BE
:10468000877F8093E8000E945C258091CB02809315
:10469000960208958091C802813AA1F48091E800C1
:1046A000877F8093E8008091E80080FFFCCF8091B5
:1046B00096028093F1008091E8008E778093E80065
:1046C0000C945C25089584B7877F84BF0FB6F89457
:1046D000A8958091600088618093600010926000CE
:1046E0000FBE90E080E80FB6F8948093610090933D
:1046F00061000FBE0E948E130E94AE250E940B2601
:104700008091E20084608093E20078940E94A02867
:104710000E949C1380E191E00E94F1128091C702F7
:104720008530A9F48091C702853079F40E94FC207D
:104730008091C5028823B1F30E94E420882391F37D
:104740000E9407240E942619EDCF0E942C210E946E
:10475000A2130E949813E2CF0C94AE23292F332783
:1047600023303105C9F060F42130310581F0223069
:10477000310509F044C08BE390E024E736E043C004
:1047800021323105E1F02232310549F138C082E1B0
:1047900090E02FEA36E037C099278130910549F043
:1047A00028F0029761F5EEE2F6E005C0E0E7F6E0FA
:1047B00002C0E6E4F6E0849190E09F0124C0611518
:1047C000710541F061307105D1F489E090E02FE985
:1047D00036E019C089E090E026E836E014C06115A3
:1047E000710541F06130710551F486EB90E021ECE8
:1047F00036E009C080E490E027E737E004C080E0BD
:1048000090E020E030E0FA0131832083089580E1D8
:1048100089BD82E189BD09B400FEFDCF8091D80039
:104820008F7D8093D8008091E00082608093E000CB
:104830008091E00081FDFCCF0895CF92DF92EF924E
:10484000FF920F931F93CF93DF93EC018B017A01BB
:104850000E947B25811133C0E114F10439F0F70186
:1048600080819181081B190BC80FD91FC12CD12C35
:104870000115110519F18091E80085FD16C08091A0
:10488000E8008E778093E800E114F10449F0F70125
:1048900080819181C80ED91ED182C08285E00FC06F
:1048A0000E947B25882321F30AC089918093F1001F
:1048B00001501109FFEFCF1ADF0ADACF80E0DF9154
:1048C000CF911F910F91FF90EF90DF90CF900895BF
:1048D0002091CE023091CF022617370748F061159C
:1048E000710539F42091E8002E772093E80001C08B
:1048F000B901FC0120E06115710579F18091C702D1
:104900008823F1F18530F1F18091E80083FD3CC00E
:104910008091E80082FD2EC08091E80080FFEBCFFF
:104920002091F3008091F20090E0922B61157105C7
:1049300051F08830910538F421912093F1006150B5
:1049400071090196F3CF21E0089709F020E08091EA
:10495000E8008E778093E800CECF2111CFCF0AC038
:104960008091C702882361F0853061F08091E80072
:1049700083FD0AC08091E80082FFF2CF80E00895B5
:1049800082E0089583E0089581E008952091CE02A9
:104990003091CF022617370748F06115710539F4B9
:1049A0002091E8002E772093E80001C0B901FC01B6
:1049B00020E06115710591F18091C702882309F407
:1049C00040C0853009F43FC08091E80083FD3DC0C0
:1049D0008091E80082FD2FC08091E80080FFE9CF40
:1049E0002091F3008091F20090E0922B6115710507
:1049F00059F08830910540F424912093F1003196CC
:104A0000615071090196F2CF21E0089709F020E08A
:104A10008091E8008E778093E800CBCF2111CCCF36
:104A20000AC08091C702882361F0853061F08091CF
:104A3000E80083FD0AC08091E80082FFF2CF80E0A9
:104A4000089582E0089583E0089581E00895982F05
:104A5000973068F59093E900981739F07091EC0061
:104A60002091ED005091F00003C0242F762F50E0EC
:104A700021FD02C09F5FECCF3091EB003E7F309371
:104A8000EB003091ED003D7F3093ED003091EB0075
:104A900031603093EB007093EC002093ED00509365
:104AA000F0002091EE0027FDE5CF80E008958F70A3
:104AB0008093E90081E008958091C80287FF11C0CA
:104AC0008091E80082FD05C08091C7028111F8CF76
:104AD00011C08091E8008B770BC08091C7028823BA
:104AE00049F08091E80080FFF8CF8091E8008E7750
:104AF0008093E80008952091E4003091E50095E668
:104B00004091EC00842F817040FF23C08091E80029
:104B100080FD1DC08091C702882399F0853099F0EF
:104B20008091EB0085FD11C04091E4005091E500BB
:104B30002417350729F3915011F09A01E1CF84E051
:104B4000089582E0089583E0089581E0089580E06B
:104B500008954091E80042FFDDCF08950E941C2691
:104B60000E942426E0EEF0E0808181608083E8ED01
:104B7000F0E080818F77808319BCA7EDB0E08C9145
:104B80008E7F8C9380818F7E80831092C6020895E1
:104B90000F931F93CF93DF930E941C260E9424261D
:104BA000C8EDD0E088818F7788838881806888838A
:104BB00088818F7D888319BC1092C7021092C3022E
:104BC0001092C5021092C40200EE10E0F80180813C
:104BD0008B7F808388818160888342E060E080E011
:104BE0000E942725E1EEF0E080818E7F8083E2EE57
:104BF000F0E0808181608083808188608083F8011B
:104C000080818E7F8083888180618883DF91CF91CE
:104C10001F910F910895E8EDF0E080818F7E8083F1
:104C2000E7EDF0E080818160808384E082BF81E0F5
:104C30008093C6020C94C825E8EDF0E080818E7F59
:104C400080831092E20008951092DA001092E10041
:104C500008951F920F920FB60F9211242F933F9336
:104C60004F935F936F937F938F939F93AF93BF9374
:104C7000EF93FF938091E10082FF0BC08091E200EF
:104C800082FF07C08091E1008B7F8093E1000E944A
:104C90009F288091DA0080FF1FC08091D80080FF9C
:104CA0001BC08091DA008E7F8093DA008091D9005A
:104CB00080FF0DC080E189BD82E189BD09B400FE9D
:104CC000FDCF81E08093C7020E94882205C019BCF5
:104CD0001092C7020E9496228091E10080FF19C0C5
:104CE0008091E20080FF15C08091E2008E7F80936A
:104CF000E2008091E20080618093E2008091D80020
:104D000080628093D80019BC85E08093C7020E941E
:104D10009A228091E10084FF30C08091E20084FFFC
:104D20002CC080E189BD82E189BD09B400FEFDCFC0
:104D30008091D8008F7D8093D8008091E1008F7E94
:104D40008093E1008091E2008F7E8093E200809169
:104D5000E20081608093E2008091C302882311F019
:104D600084E007C08091E30087FD02C081E001C0BC
:104D700083E08093C7020E949B228091E10083FF21
:104D800029C08091E20083FF25C08091E100877FE8
:104D90008093E10082E08093C7021092C302809169
:104DA000E1008E7F8093E1008091E2008E7F80930E
:104DB000E2008091E20080618093E20042E060E0E6
:104DC00080E00E9427258091F00088608093F000A9
:104DD0000E949922FF91EF91BF91AF919F918F9186
:104DE0007F916F915F914F913F912F910F900FBEE7
:104DF0000F901F9018951F920F920FB60F921124CB
:104E00002F933F934F935F936F937F938F939F93D2
:104E1000AF93BF93CF93DF93EF93FF93C091E900DC
:104E2000CF708091EC00D82FD17080FDD0E8109227
:104E3000E9008091F000877F8093F00078940E94D1
:104E40003F271092E9008091F00088608093F00085
:104E5000CD2BCF70C093E900FF91EF91DF91CF91FF
:104E6000BF91AF919F918F917F916F915F914F9182
:104E70003F912F910F900FBE0F901F9018951F9389
:104E8000CF93DF93CDB7DEB7AA970FB6F894DEBF06
:104E90000FBECDBFE8ECF2E08091F100819322E0FB
:104EA000E03DF207C9F70E94A6228091E80083FF47
:104EB0002EC18091C8029091C902492F50E04A301A
:104EC000510508F024C1FA01E354FF4F0C94E32884
:104ED000803821F0823809F01AC108C08091C402DC
:104EE0009091C502992389F082600FC08091CC0215
:104EF0008F70873008F00BC18093E9008091EB0040
:104F000085FB882780F91092E9009091E800977F4F
:104F10009093E8008093F1001092F100D1C0282F07
:104F20002D7F09F0F4C0882319F0823061F0EFC0C2
:104F30008091CA02813009F0EAC0933009F080E024
:104F40008093C5022EC08091CA0281112AC080912F
:104F5000CC028F702FEF280F263008F0D8C0809336
:104F6000E9002091EB0020FF1CC0933021F48091D8
:104F7000EB00806214C09091EB0090619093EB0085
:104F800021E030E0A90102C0440F551F8A95E2F7E5
:104F90004093EA001092EA008091EB0088608093D1
:104FA000EB001092E9008091E800877F8093E80091
:104FB0000E945C25ACC08111AAC01091CA021F7763
:104FC0008091E3008078812B8093E3008091E8005A
:104FD000877F8093E8000E945C258091E80080FF35
:104FE000FCCF8091E30080688093E300111102C040
:104FF00082E001C083E08093C70289C0805882307C
:1050000008F085C08091CA029091CB028C3D53E09C
:10501000950779F583E08A838AE289834FB7F8940C
:10502000DE01139620E03EE051E2E32FF0E05093E2
:105030005700E49120FF03C0E295EF703F5FEF70EF
:105040008E2F90E0EA3010F0C79601C0C0968D9385
:105050009D932F5F243149F74FBF8091E800877FF0
:105060008093E8006AE270E0CE0101960E94682415
:1050700016C06091CC027091CD02AE014F5F5F4FC0
:105080000E94AC23BC01892B09F441C09091E80037
:10509000977F9093E80089819A810E94C62480912D
:1050A000E8008B778093E80032C0803881F58091EA
:1050B000E800877F8093E8008091C3028093F1002D
:1050C0008091E8008E7772CF811121C08091CA0251
:1050D0009091CB0299270297D4F48091E800877FC2
:1050E0008093E8008091CA028093C3020E945C25ED
:1050F0008091C302811106C08091E30087FD02C048
:1051000081E001C084E08093C7020E949C228091CC
:10511000E80083FF0AC08091E800877F8093E80061
:105120008091EB0080628093EB00AA960FB6F89412
:10513000DEBF0FBECDBFDF91CF911F9108950895BF
:10514000CF938091C7028823A1F0C091E900CF706E
:105150009091EC00892F817090FD80E8C82B10920F
:10516000E9008091E80083FD0E943F27CF70C09343
:10517000E900CF910895AA1BBB1B51E107C0AA1FEC
:10518000BB1FA617B70710F0A61BB70B881F991FE8
:105190005A95A9F780959095BC01CD01089597FB8C
:1051A000072E16F4009407D077FD09D00E94BB2883
:1051B00007FC05D03EF4909581959F4F089570951A
:1051C00061957F4F0895EE0FFF1F0590F491E02D3C
:1051D00009940F931F93CF93DF938230910510F4BE
:1051E00082E090E0E091D202F091D30220E030E042
:1051F000A0E0B0E0309719F1408151810281138124
:1052000048175907C8F08417950769F4109731F0CB
:1052100012960C93129713961C9327C00093D202F8
:105220001093D30222C02115310519F042175307FC
:1052300018F49A01BD01EF01DF01F801DBCF211560
:105240003105F9F0281B390B2430310580F48A81AF
:105250009B816115710521F0FB019383828304C05A
:105260009093D3028093D202FE01329644C0FE0195
:10527000E20FF31F819391932250310939832883E0
:105280003AC02091D0023091D102232B41F42091D9
:105290000201309103013093D1022093D00220917A
:1052A0000001309101012115310541F42DB73EB7C0
:1052B0004091040150910501241B350BE091D0026F
:1052C000F091D102E217F307A0F42E1B3F0B281731
:1052D000390778F0AC014E5F5F4F2417350748F06F
:1052E0004E0F5F1F5093D1024093D0028193919350
:1052F00002C0E0E0F0E0CF01DF91CF911F910F916C
:105300000895CF93DF93009709F481C0FC01329791
:1053100013821282A091D202B091D302109781F42D
:1053200020813181820F931F2091D0023091D102D0
:105330002817390751F5F093D102E093D00267C0E6
:10534000ED0120E030E0CE17DF0740F44A815B81B9
:105350009E0141155105F1F0EA01F5CFD383C283D7
:1053600040815181840F951FC817D90759F488814E
:105370009981840F951F0296918380838A819B81F6
:10538000938382832115310529F4F093D302E093AE
:10539000D2023DC0E901FB83EA8349915991C40FD0
:1053A000D51FEC17FD0761F480819181840F951F53
:1053B0000296E90199838883828193819B838A8302
:1053C000E0E0F0E012968D919C911397009719F010
:1053D000FD01DC01F7CF8D919C9111979D012E5F0E
:1053E0003F4F820F931F2091D0023091D102281796
:1053F000390769F4309729F41092D3021092D2023F
:1054000002C013821282B093D102A093D002DF9126
:10541000CF910895F999FECF92BD81BDF89A992751
:1054200080B50895A6E1B0E044E050E00C94442A31
:10543000A8E1B0E042E050E00C94442A262FF9990C
:10544000FECF92BD81BDF89A019700B4021639F0E3
:105450001FBA20BD0FB6F894FA9AF99A0FBE0895B4
:105460000396272F0E941F2A0E941E2A252F0E9482
:105470001F2A242F0C941F2A0196272F0E941F2ACF
:105480000C941E2ADC01CB01FC01F999FECF06C069
:10549000F2BDE1BDF89A319600B40D9241505040F2
:0854A000B8F70895F894FFCF5E
:1054A8000000D402200020002808643C07145002A1
:1054B800EA21472228222422202201E200E900EAE8
:1054C80000B500B600B700CD008301CC008A019278
:1054D8000194012102230224022502260227022A1E
:1054E80002B300B4006F00700081828301020304DC
:1054F800050607080900E200E900EA00B500B60061
:10550800B700CD008301CC008A01920194012102E9
:10551800230224022502260227022A02B300B4002D
:085528006F0070008182830016
:00000001FF
