:100000000C9488030C94A5030C94A5030C94A503ED
:100010000C94A5030C94A5030C94A5030C94A503C0
:100020000C94A5030C94A5030C9495250C946726B9
:100030000C947C200C94A5030C94A5030C94A503AC
:100040000C94A5030C94A5030C94A5030C94A50390
:100050000C94A5030C94D5200C94A5030C94A50333
:100060000C94A5030C94A5030C94A5030C94A50370
:100070000C94A5030C94A5030C94A5030C94A50360
:100080000C94A5030C94A5030C94A5030C94A50350
:100090000C94A5030C94A5030C94A5030C94A50340
:1000A0000C94A5030C94A5030C94A503010404046B
:1000B00007040A040D04100413044F0B450B520BE4
:1000C0009A0B9E0B9E0B9A0B9E0B9E0B730B9E0B1B
:1000D0007D0B870B9E0B9E0B9E0B9E0B9A0B9E0B14
:1000E0009E0B9A0B9E0B600B9E0B9E0B970B970B18
:1000F000970B970B970B970B970B970B970B9C0BEB
:100100009E0B4F0B420B9E0B9E0B9E0B9E0B9E0B52
:100110009E0B9E0B9E0B9E0B9E0B9C0B9E0B9E0B99
:100120009A0B9E0B950B950B950B950B950B950BC1
:10013000950B950B950B9C0BD715D7150916091622
:10014000521674168D17F1177F161A172C172C17C5
:100150009917BC17A117A417AF17A917B417B01890
:10016000B018C218C218B918C218C218C218B018EC
:10017000B018BE18C218C218BE18D426FB26F32722
:10018000FB26F32747276A27F327C127D0271B0120
:1001900007082B43E100E0000000060133000400E3
:1001A0003800E300E3411901360012001400466FE5
:1001B0002A002602370008000D00E2002C002F0262
:1001C000130018000E00025129002F001C000C0023
:1001D0001B0000004C001C011D0100003400000049
:1001E0006F003D041F02000004530000E3003602CC
:1001F00009000700050000004C0023020A000B0064
:1002000010002D634A002E00060017001A0002514C
:10021000DA5C240215001100190071002B71310203
:100220000F0016001D0072004D003E0050046E438A
:10023000E500730000000100010001000100010061
:10024000000001000B000400150001000100010086
:100250001D001600090001000100010008000B0448
:100260000E0001000100010019001E002000010025
:10027000010001001B001F0021000000010001001F
:100280000100000001000000010001000100000069
:100290000100000001000100140016000100000030
:1002A000010001001A00040001000100010001002A
:1002B0000800070001000100010001000100010029
:1002C0000100010001000100010001000100010026
:1002D0000100010001000100010001000000010017
:1002E000B40001000100010000003A00010001001B
:1002F0000100010001003B00F100EF006C00010073
:1003000001003C00ED00EE002B08010001003D0063
:10031000F200F0006D00010001003E0001006800E5
:100320006900000001003F0001000000E300000040
:100330000100400001000000010000000100410038
:10034000010001000100000001004200F100FB007B
:100350000100FD0001004300F900FA000100FE0069
:1003600001004400F200FC000100FF000100450014
:100370000100010001000100010001530100010022
:100380000100010000000100010001000100010066
:10039000000001001F0250010100010001000100E6
:1003A00051015000010001000100270252005100DC
:1003B000B40001000100300252014F0001000100B1
:1003C0000100300001004F010100000001000100A8
:1003D0000100000001000000010001000100000018
:1003E00055000000010037021E022E0056000000DA
:1003F00001002302240021001E0062004B00640063
:10040000250022001F0063000100010026002300D8
:10041000200001000100AA00010055003800010081
:100420004E00A900AB00AE00AC00010000000100CE
:10043000010001000100010000001E001400040082
:100440001D00010001001F001A0016001B00010022
:100450000100200008000700060001000100210043
:1004600015000900190001000100220017000A0010
:100470000500000001000100010000000100000073
:1004800001000100010000000453000001002300EE
:100490001C000B00110000000100240018000D00DA
:1004A00010000100010025000C000E0036000100C4
:1004B0000100260012000F00370001000100620059
:1004C00013003300380001000100010001000100A9
:1004D00001000100000000000000000000002A2BC5
:1004E00028000000000000000000000000000000E4
:1004F0000029000000002C1E34202122243426274D
:10050000252E362D3738271E1F202122232425266D
:100510003333362E37381F0405060708090A0B0C3B
:100520000D0E0F101112131415161718191A1B1C83
:100530001D2F3130232D350405060708090A0B0C41
:100540000D0E0F101112131415161718191A1B1C63
:100550001D2F3130354C000000000000000000006D
:10056000000000000000000000000000000000008B
:10057000000000000000000000007E0F00D4FFFF1C
:10058000FFC70000007816034500720067006F0087
:1005900044006F007800200045005A000000280346
:1005A0005A005300410020005400650063006800B9
:1005B0006E006F006C006F006700790020004C0037
:1005C00061006200730000000403090409023B009B
:1005D000020100A0FA090400000103010100092141
:1005E000110100012240000705810308000A0904E7
:1005F0000100010300000009211101000122B600E1
:100600000705820320000A1201100100000008976C
:1006100032744901000102000105010902A10185AE
:10062000020901A1000509190129081500250195F4
:1006300008750181020501093009311581257F9571
:10064000027508810609381581257F950175088195
:1006500006050C0A38021581257F9501750881066B
:10066000C0C005010980A101850319012AB7001541
:100670000126B700950175108100C0050C0901A184
:1006800001850419012AA002150126A00295017511
:10069000108100C005010906A1018505050719E0C3
:1006A00029E7150025019508750181020507190044
:1006B00029EF1500250195F0750181020508190142
:1006C0002905950575019102950175039101C005F4
:1006D000010906A101050719E029E7150025019583
:1006E0000875018102950175088101050719002926
:1006F000FF150026FF009506750881000508190101
:100700002905950575019102950175039101C000B8
:1007100011241FBECFEFDAE0DEBFCDBF12E0A0E0B4
:10072000B1E0E0E8F3E502C005900D92A033B10717
:10073000D9F723E0A0E3B2E001C01D92AC37B207C5
:10074000E1F70E94CD220C94BE290C940000809801
:10075000889A8198899A84988C9A85988D9A869897
:100760008E9A87988F9A089520982898219829988A
:1007700022982A9823982B9852985A9853985B98C5
:100780003E9846980895CF93E82F873080F5809162
:10079000060190910701892B09F047C0CE2F64E62E
:1007A00070E080E40E94BC119093070180930601E1
:1007B000892BD1F464E670E082E10E9413129093D9
:1007C000070180930601892B79F481E090E001C054
:1007D000880FCA95EAF764E670E080950E941312CC
:1007E0009093070180930601CF910C94681290E0DA
:1007F000FC013797E730F105C0F4EA5AFF4F0C943B
:100800004F28209A289811C0219A29980EC0229A20
:100810002A980BC0239A2B9808C0529A5A9805C060
:10082000539A5B9802C03E9A4698CF910895CF9311
:10083000873040F58091060190910701892B59F589
:1008400064E670E081E40E94BC11909307018093FC
:100850000601892B11F0C0E011C084E690E00E94EF
:10086000431297FF05C09093070180930601F3CFD1
:10087000C82FC09510920701109206010E946812BD
:100880008C2F0AC09FB18FB1807F8695869593701B
:10089000892B809501C080E0CF9108950E944C057E
:1008A00090E090930701809306010E94B4030C949A
:1008B000A703EF92FF920F931F93CF93DF93809143
:1008C000060190910701892B91F0809132028F5F90
:1008D0008093320281110BC00E944C0590E09093EE
:1008E000070180930601892B11F40E94BE0403E4E2
:1008F00013E0C0E0F12C87E0E82EEC0E8C2F0E9474
:10090000C3038E2D0E94C3038C2F0E941704F8018D
:100910009081891719F08083D1E001C0D0E08E2D3D
:100920000E941704F8019781891719F0878381E0E5
:1009300001C080E0D82BFD2A0E94B403CF5F0F5F77
:100940001F4FC730C1F68F2DDF91CF911F910F91AF
:10095000FF90EF9008950E944C0590E0909307015E
:10096000809306010E94B4030E94A703E1E5F3E02F
:10097000119283E0EF35F807D9F7089556985E98FD
:1009800025982D9826982E9827982F988FEF90E0ED
:10099000909389008093880090938B0080938A00C5
:1009A00090938D0080938C00259A2D9A2FEF80E7ED
:1009B00092E0215080409040E1F700C00000269A6C
:1009C0002E9A2FEF80E792E0215080409040E1F78F
:1009D00000C00000279A2F9A2FEF80E792E0215065
:1009E00080409040E1F700C0000025982D982FEF3F
:1009F00080E792E0215080409040E1F700C0000085
:100A000026982E982FEF80E792E02150804090406A
:100A1000E1F700C0000027982F9856985E98259817
:100A20002D9826982E9827982F98089589EA8093D4
:100A3000800089E08093810024982C983F988AB1A7
:100A40008F7C8AB96E98479A8BB180638BB9769AFE
:100A50000E94F11E60933F03709340038093410313
:100A60009093420367708FEF689FB00111247595D2
:100A700067957595679577277093890060938800CF
:100A800070938B0060938A0070938D0060938C004C
:100A90000E94BE040C946A0980E290E090930701E2
:100AA000809306018091330281110EC00E94B6111D
:100AB00081E0809333022FEF83ED90E3215080405B
:100AC0009040E1F700C0000064E670E080E40E941E
:100AD000BC119093070180930601892B09F04EC049
:100AE00064E670E080E00E94131290930701809307
:100AF0000601892B09F042C064E670E080E00E94A4
:100B000013129093070180930601892BB9F564E6CF
:100B100070E08FE30E941312909307018093060107
:100B2000892B61F50E94681264E670E080E40E94FF
:100B3000BC119093070180930601892BF9F464E6B8
:100B400070E08CE00E9413129093070180930601DD
:100B5000892BA1F464E670E080E00E941312909368
:100B6000070180930601892B49F464E670E08FE366
:100B70000E94131290930701809306010E9468124D
:100B800080910601089510923F0310924003109245
:100B900041031092420384E0806180933F0360919F
:100BA0003F037091400380914103909142030E9462
:100BB000F51E0C94011F9C013A9521153F4138F513
:100BC000DC01AA27B270AC01442754709C01222793
:100BD000387094FF0FC090FF02C080E101C080E038
:100BE000AB2B09F08062452B09F08064232B69F060
:100BF00080680BC0892F8170AB2B09F08260452B78
:100C000009F08460232B09F08860FB0109940895A2
:100C1000CF93DF93EC01805E9109089710F0209745
:100C200019F46AE875E102C066E778E1CE010E9436
:100C3000DB058C2FDF91CF910C945314CF93DF936E
:100C4000EC010E940215CE01805E9109089710F018
:100C5000209719F461E975E102C06DE778E1CE01F2
:100C6000DF91CF910C94DB05CF93DF93EC010E94D1
:100C70000806CE01DF91CF910C941E0681E0089505
:100C800081E008950C94400608950C9444061F9347
:100C9000CF93DF9300D000D01F92CDB7DEB749834A
:100CA0005A836B8330917B0289819A81311114C000
:100CB000662359F0222349F00E946E1D182F682FD9
:100CC00089819A810E94151D03C00E94411D182F21
:100CD00069817A81812F04C00E946E1D69817A81A9
:100CE0000F900F900F900F900F90DF91CF911F9169
:100CF0000C946D07FC01262F408151816281738124
:100D000084810C944706CF93DF93EC0160E00E944E
:100D10007A06BE01DF91CF910C9445060E94C01E59
:100D2000811102C00E94641F0E94EF0E0C941605F0
:100D30000C94680908950E949E180E949A062FEF4D
:100D400084E39CE0215080409040E1F700C0000027
:100D50000C94FB200F931F93CF93DF93EC0161E082
:100D60000E947A068C01BE010E944206882379F116
:100D7000BE01C8010E94770F882349F1BE01C80156
:100D80000E940810882319F1BE01C8010E945A1060
:100D90008823E9F0BE01C8010E9485118823B9F0BB
:100DA0008A81882369F001158CE5180731F00F3D21
:100DB0001C4531F40E94641F0AC00E949B0607C0B4
:100DC000CE01DF91CF911F910F910C943E0680E0F0
:100DD000DF91CF911F910F910895DF92EF92FF92D3
:100DE0000F931F93CF93DF93E82FF0E0EA52FB4F6E
:100DF000D490282F26952695269530E0F901EA58BB
:100E0000FA4F0491877010E0082E02C015950795DF
:100E10000A94E2F701701127F901EA59FA4FE490B8
:100E2000F12C082E02C0F594E7940A94E2F791E0C1
:100E3000E922FF24F901EA5AFA4FC491D0E002C036
:100E4000D595C7958A95E2F7C170DD270115110583
:100E500019F081EE0E945314E114F10419F086EEAA
:100E60000E9453148D2D0E948115EF2819F086EEF3
:100E70000E940215012B19F081EE0E940215CD2B64
:100E800051F08CE2DF91CF911F910F91FF90EF9085
:100E9000DF900C948115DF91CF911F910F91FF90FE
:100EA000EF90DF900895982F9F709A50963010F031
:100EB000805D01C0895A0C94ED0608950C945D077D
:100EC00081E008950C946007CF93C82F0E945E07BD
:100ED0008C2F0E946207CF91089524E5829FC00164
:100EE0001124FC0126E0729FE00DF11D1124E60F94
:100EF000F11DEE0FFF1FE257FE4F8591949108956B
:100F0000CF93DF930E946D070E948708EC01811543
:100F100022E5920708F049C0C11581E5D80708F01D
:100F2000BAC0C83ED10528F5C03ED10508F0EBC0D7
:100F3000C83AD10578F4C53AD10508F088C0C13067
:100F4000D10509F4E0C008F4DCC0C430D10508F0D4
:100F5000DAC0D7C0CF3BD10508F0D3C0C85AD0E023
:100F6000CC0FDD1FCD53DE4F0990D881C02DD46446
:100F7000CAC0C11590E2D90758F4C11521E0D207C3
:100F800008F0C1C0CD3ED10508F4BBC0D065BBC0E0
:100F9000C11580E4D80708F4B4C0C11590E5D9079D
:100FA00008F05DC0DF70D06AAEC0811526E59207FB
:100FB00018F5C11585E5D80708F086C0C11594E578
:100FC000D90708F07CC09E01237033278C2F8695AB
:100FD0008695C115D34508F063C0C1E0D0E002C0DA
:100FE000CC0FDD1F2A95E2F720E2829FC001112479
:100FF000C82BD92BDC6887C081152AE5920778F4C5
:10100000C11589E5D80708F069C0C11598E5D90769
:1010100008F477C0DC2FCC27C06FD06A74C081156C
:101020009B4508F46EC0C1158CE5D80708F466C06E
:10103000CE0190568115904208F063C08D2F8F71BC
:101040000E941B09DD27D0628F71D82B5CC0C55A66
:10105000D0E0CF50DE4FC881D0E0D06454C0CE0184
:1010600074E0969587957A95E1F783709C2F93703D
:1010700021E030E002C0220F331F9A95E2F73C686E
:10108000382BCF70C695C69580E2C89FE001112429
:10109000C22BD32B38C0DC2FCC27C16FD06A33C012
:1010A000C1E0D0E002C0CC0FDD1F2A95E2F720E2BC
:1010B000829FC0011124C82BD92BDA6824C0DC2FF1
:1010C000CC27C46FD06A1FC08C2F0E941B098F7160
:1010D000C82FD0E0DC2FCC27D06215C08C2F8F70AA
:1010E0000E941B0994E0D695C7959A95E1F7CF70B9
:1010F000D0E0DC2FCC27D069C82B05C0DD27D06617
:1011000002C0C0E0D0E0CE01DF91CF9108958238D7
:10111000910569F1B0F48133910509F46DC048F48B
:101120008932910509F463C08A32910509F469C0D6
:1011300008958533910509F455C089339105B9F0B7
:101140000895833E910569F138F4803E9105B1F030
:10115000823E910509F10895863E9105A9F1873EE9
:101160009105B9F1843E910509F064C023C0209136
:10117000690320FD4FC021FD4DC008958091690392
:1011800080FD44C080916A0380FF44C08091690360
:1011900084FD42C083EE4DC08091690382FF38C058
:1011A000F5CF8091690382FD33C080916A0380FD91
:1011B00031C0ECCF80916A0381FF32C08091690316
:1011C00084FD2AC087EE35C08091690383FF26C065
:1011D000F5CF8091690383FD21C080916A0381FD71
:1011E0001FC0ECCF8091690385FD1CC01DC080919C
:1011F000690385FD19C016C08091690386FD16C07C
:1012000017C08091690386FD13C010C089E311C027
:1012100082EE0FC080EE0DC080E00BC086EE09C0EC
:1012200084EE07C089E205C085E303C08AE201C0FD
:1012300081E390E008959091690392FF0DC0282FFB
:101240002871283019F4877F846006C0282F247104
:10125000243011F48B7F886093FF0DC0282F2871F4
:10126000283119F4877E846106C0282F2471243127
:1012700011F48B7E886120916A0320FF0DC0382F06
:101280003871383019F4877F816006C0382F31718A
:10129000313011F48E7F886021FF0DC0282F287116
:1012A000283119F4877E816106C0282F21712131F0
:1012B00011F48E7E886194FD877E0895E82FF0E01A
:1012C000EF5AFC4F80810895089508950C946509A4
:1012D0000C9466090C9465090E944E04E3E4F3E063
:1012E000A1E5B3E011921D9283E0E135F807D1F753
:1012F0008EE00E9490090C948E06CF9383E493E0D5
:101300000E945904C82F282F4EE061E573E083E462
:1013100093E00E94090A0E9498068C2FCF910895AD
:10132000CF93C82F90E00E94552880933802909365
:101330003902282FFC019BEF8E2F821B8C1710F493
:101340009193FACFCF9108950F931F93CF93DF938B
:10135000A62F1092370230913802E32FF091390214
:1013600020E0C62FD0E0BBEF0BEF10E09E2F931BC9
:10137000981700F590819B3FD9F0492F50E0A917AD
:1013800028F0BE01641B750BAB0106C0B801641BDD
:10139000750BAB014C0F5D1F052E000C660B770B18
:1013A0004E3151056105710510F0B08301C021E097
:1013B0003196DCCF20933702DF91CF911F910F91AF
:1013C0000895CF93DF9310923A02509138023091F2
:1013D0003702DB01EC01E52FF091390290E08E2F0E
:1013E000851B841778F489916C91681741F06081AE
:1013F0006B3F21F420838C9331E001C091E0319662
:101400001196EDCF3093370290933A02DF91CF914E
:101410000895DF92EF92FF920F931F93CF93DF9384
:10142000EC018B01E42ED22E0E94AE20AC01609123
:101430003502709136029093360280933502909176
:101440003402292F30E0261B370BC901840F951F6A
:101450006BEF70E00E942728F82E80933402809171
:101460003702882319F16F2D8E2D0E94A409DD20EB
:1014700069F02F2D4E2DB801CE01DF91CF911F9134
:101480000F91FF90EF90DF900C94E109809137026B
:10149000882379F380913A028111EBCFDF91CF91CC
:1014A0001F910F91FF90EF90DF900895D110E1CF41
:1014B000F1CF833081F128F4813059F08230D1F0BE
:1014C0000895853009F449C0B8F1863009F456C052
:1014D000089580913E02262F30E0280F311D2F3FC6
:1014E000310524F4680F60933E0208958FEF8093D6
:1014F0003E02089580910D01262F30E0280F311D06
:101500002F3F310524F4680F60930D0108958FEF8C
:1015100080930D01089580910C01262F30E0280F53
:10152000311D2F3F310524F4680F60930C0108959D
:101530008FEF80930C01089580910B01262F30E0EE
:10154000280F311D2F3F310524F4680F60930B01E4
:1015500008958FEF80930B01089580910901262F44
:1015600030E0280F311D2F3F310524F4680F6093C0
:10157000090108958FEF8093090108958091080172
:10158000262F30E0280F311D2F3F310524F4680F3E
:101590006093080108958FEF8093080108958330C8
:1015A00011F128F4813049F0823091F008958530AE
:1015B00081F120F18630C1F1089580913E026817D3
:1015C00020F4861B80933E02089510923E020895F7
:1015D00080910D01681720F4861B80930D010895FA
:1015E00010920D01089580910C01681720F4861B5C
:1015F00080930C01089510920C01089580910B01C5
:10160000681720F4861B80930B01089510920B013C
:10161000089580910901681720F4861B80930901C1
:10162000089510920901089580910801681720F427
:10163000861B8093080108951092080108950F9366
:101640001F9341E050E060E070E08A019B0104C01C
:10165000000F111F221F331F8A95D2F7C901B8014D
:101660000E94171C1F910F910C949E18482F50E058
:10167000FA013597EF33F10508F060C0E35AFF4FE8
:101680000C944F280E94641F55C080911B03817FDA
:101690008E7F80931B0381E080933C0208950E941B
:1016A0009B0648C080911B03982F9095917090FBEA
:1016B00080F980931B0391113DC0897F877F10C003
:1016C00080911B0381FB222720F991E0922790FB58
:1016D00081F980931B03992369F180911B03816039
:1016E00080931B0327C080911B0382FB222720F9D4
:1016F00091E0922790FB82F9ECCF80911B0383FB52
:10170000222720F991E0922790FB83F9E2CF0E94F3
:101710009E188091690387FB222720F991E0922788
:1017200090FB87F98093690305C0895301C08D51EF
:101730000E941F0B81E0089580E0FACF80E00895B9
:1017400080E008950C94A00B8E518A3030F4E82F7D
:10175000F0E0EC50FE4F8081089580E00895CF9333
:10176000C82F80913C02813071F018F08230E1F195
:1017700084C00E94171E813151F00E94171E8232D0
:1017800009F07DC004C00E94171E813149F48C2FDE
:101790000E94A20B811109C08C2F0E94360B22C01F
:1017A0000E94171E823221F4F2CF81E090E01AC02D
:1017B0008C2F0E94A00B811114C0C43179F048F421
:1017C000CB3079F0C03109F05EC082E080933C02FA
:1017D00008C0C93219F0C83321F055C010923C023C
:1017E00052C081E0817051C0C93279F108F5C4312D
:1017F00061F1A0F4C73009F044C010923E0284E1C8
:1018000080930D01C0930C018CE380930B0188E061
:101810008093090188E28093080133C082EE8C0F27
:10182000863078F58C2F0E94A40B80933B0229C050
:10183000CE34E9F020F4CB3421F56AE013C0C13591
:1018400079F0C235F1F461E00DC080913B0288234C
:1018500019F010923B0215C081E080933C0215C044
:1018600061E006C080913B020E94590A0AC06AE00A
:1018700080913B020E94CF0A04C010923C0280E09B
:1018800004C081E002C080E0ADCFCF910895809187
:10189000450280FF0BC060910C0185E0689FB0019C
:1018A000112475956795759567952BC081FF09C0C3
:1018B00060910C0185E0689FB001112475956795D2
:1018C00020C082FF07C060910C0185E0689FB001D5
:1018D000112417C0909144029923D1F060910B011B
:1018E000961788F720910C0185E0289F900111241C
:1018F000929FA001939F500D112470E0CA010E9495
:101900003B286038710540F46115710519F406C073
:1019100065E070E0862F08958FE7089581E00895CF
:101920008091450280FF08C06091090170E07595C3
:1019300067957595679521C081FF06C06091090183
:1019400070E07595679519C082FF04C06091090128
:1019500070E010C090914302992399F060910801C2
:101960009617A0F780910901899FC001112470E0AA
:101970000E943B286038710540F46115710519F427
:1019800006C061E070E0862F08958FE7089581E03A
:1019900008958D3E21F40E94470C819504C08E3E2F
:1019A00029F40E94470C8093490208958F3E21F448
:1019B0000E94470C819504C0803F29F40E94470C87
:1019C000809348020895893F19F40E94900C05C045
:1019D0008A3F31F40E94900C819580934A020895C9
:1019E0008B3F21F40E94900C819504C08C3F29F418
:1019F0000E94900C80934B0208959FE0980F9830BE
:101A000078F421E030E0A90102C0440F551F9A95F7
:101A1000E2F7CA0190914702892B8093470208950B
:101A20008D3F21F48091450281600BC08E3F21F4EF
:101A300080914502826005C08F3F29F48091450264
:101A400084608093450208958D3E39F49091490257
:101A500097FF35C01092490259C08E3E29F49091EB
:101A600049021916BCF32BC0909148028F3E29F40D
:101A700097FF25C01092480249C0803F19F41916FB
:101A8000CCF31DC090914A02893F29F41916BCF489
:101A900010924A023BC08A3F19F497FF10C0F8CF5A
:101AA0008B3F39F490914B0297FF09C010924B0283
:101AB0002DC08C3F21F490914B021916BCF39FE08E
:101AC000980F983080F421E030E0A90102C0440F63
:101AD000551F9A95E2F7CA01809590914702892394
:101AE0008093470213C08D3F21F4809145028E7F81
:101AF0000BC08E3F21F4809145028D7F05C08F3F42
:101B000029F4809145028B7F8093450280914802A1
:101B1000811106C080914902811102C010924402D5
:101B200080914A02811106C080914B02811102C04E
:101B30001092430208950E94AE2020914802211184
:101B400004C020914902222321F090934202809305
:101B5000410220914A02211104C020914B0222230C
:101B600021F09093400280933F0286E492E00C942F
:101B7000A412EF92FF920F931F93CF93DF9300D0A5
:101B800000D000D0CDB7DEB786E0E6E4F2E0DE01BB
:101B9000119601900D928A95E1F7E0904802F0903D
:101BA000490200914A0210914B0210924802109291
:101BB000490210924A0210924B02E11003C0FF202A
:101BC00009F45DC080914102909142020E94C620BA
:101BD000AC0190914402992339F020910D0130E03D
:101BE0002417350758F04BC020913E028AE0289F09
:101BF000900111242417350718F041C09F3F19F0B8
:101C00009F5F90934402EE2061F00E94470C1E14E7
:101C100014F09FEF01C091E0989F902D11249093B4
:101C20004802FF2061F00E94470C1F1414F09FEF40
:101C300001C091E0989F902D11249093490230911A
:101C400048023323E1F0209149022223C1F045EB01
:101C50003403C0011124992319F09093480203C062
:101C600081E08093480235EB2303C00111249923BE
:101C700019F09093490203C081E080934902011159
:101C800003C0112309F45DC080913F02909140028E
:101C90000E94C620AC0190914302992339F0209113
:101CA0000A0130E02417350758F04BC020913D025F
:101CB0008AE0289F900111242417350718F041C0AD
:101CC0009F3F19F09F5F90934302002361F00E94B1
:101CD000900C101614F09FEF01C091E0989F902D8A
:101CE000112490934A02112361F00E94900C111666
:101CF00014F09FEF01C091E0989F902D11249093D4
:101D00004B0230914A023323E1F020914B0222230F
:101D1000C1F045EB3403C0011124992319F09093CD
:101D20004A0203C081E080934A0235EB2303C001DD
:101D30001124992319F090934B0203C081E0809302
:101D40004B028091480281110BC0809149028111A0
:101D500007C080914A02811103C080914B0281111A
:101D60000E949B0DEB82FC820D831E8386E0FE01A8
:101D70003196A6E4B2E001900D928A95E1F726969D
:101D80000FB6F894DEBF0FBECDBFDF91CF911F918C
:101D90000F91FF90EF900895E6E4F2E086E0DF0116
:101DA0001D928A95E9F71092440210924302109214
:101DB00045020895CF93DF9397FF0DC0FB01228169
:101DC000222349F0EC010E94050FCE019F770E946B
:101DD0005C0F0E943E0F81E0DF91CF9108958CE06F
:101DE00090E00E94762990E0A0E0B0E080935F034D
:101DF00090936003A0936103B09362030895609190
:101E00005F038CE090E00C948A290E947D128695F5
:101E100081708093640390915F03913029F488234B
:101E200019F089E30E9481150E94171E80936303B5
:101E30000E942A1E80915F03813071F048F0823049
:101E400081F08430A1F486EE0E94811588E10DC0F6
:101E500082EE0E9453140BC088E193E00E94340686
:101E600006C082EE0E94531487E50E9481158FE31D
:101E70009CE90197F1F700C00000089580915F038D
:101E8000813039F078F0823069F0843089F488E26A
:101E90000DC08CE20E94811580916403882341F07B
:101EA00089E304C082EE0E94021502C00E948115DF
:101EB000809163030C94271E0F931F93CF93DF939E
:101EC0008C01CCE0D0E0C8010C2E02C0969587951D
:101ED0000A94E2F78F700E9453072497CC3F8FEF4C
:101EE000D80789F7DF91CF911F910F9108950F9334
:101EF0001F93CF93DF93EC018B01FB018281882339
:101F000061F00E94171ECE01825E9C4585309105CE
:101F100020F480935F030E94FF0EB801CE01DF9191
:101F2000CF911F910F910C94DA0E0F931F93CF93C3
:101F3000DF93C42FD22FFC0182818823C9F0409304
:101F40004E020E94AE2090934D0280934C0280E29C
:101F50008C0F883008F057C0C77081E001C0880F2F
:101F6000CA95EAF7DF91CF911F910F910C948A15D2
:101F700080914E02481330C080914C0290914D02E6
:101F80000E94C620883C910538F510E21D0FCD1740
:101F9000B9F080E28C0F883040F4C77081E001C056
:101FA000880FCA95EAF70E949115183028F581E04C
:101FB0009D2F977001C0880F9A95EAF70E948A15A5
:101FC000802F0E9481151830F0F4D77081E001C095
:101FD000880FDA95EAF70AC080E28C0F883098F40F
:101FE000C77081E001C0880FCA95EAF7DF91CF91F1
:101FF0001F910F910C949115802FDF91CF911F911C
:102000000F910C948115DF91CF911F910F9108953D
:102010000F939C01CB01243F4CE5340731F188F448
:10202000293DFCE53F07D9F02A3D4CE5340779F11D
:10203000283D3C45A9F506E221EE41EE68ED7CE540
:102040002BC0263FFCE53F07E1F0A8F0273F3C45C9
:1020500039F507E225EE46EE67EF7CE51DC007E2A5
:1020600025EE45EE69ED7CE517C006E221EE40EE77
:1020700064EF7CE511C007E225EE44EE65EF7CE5F8
:102080000BC006E221EE42EE66EF7CE505C008E2F9
:1020900021E045EE6AED7CE50E94950F80E008C0E6
:1020A000FC018281882319F010924E0201C081E068
:1020B0000F910895CF93DF93EC01FB018281882378
:1020C00009F41FC1C230FCE5DF0708F41BC1C631AB
:1020D0009CE5D90738F09E012B5F3C45293031053E
:1020E00008F010C10E94D31E90936A038093690385
:1020F000C031ECE5DE0709F4C3C008F041C0C830C8
:102100008CE5D80709F49AC0F0F4C430ECE5DE079A
:1021100009F487C068F4C2308CE5D80709F477C0A9
:10212000C330DC4509F0E3C080916903826076C06A
:10213000C630ECE5DE0709F46EC008F07BC0809184
:10214000690388606BC0CC308CE5D80709F485C082
:1021500068F4CA30ECE5DE0709F474C008F079C011
:102160000E949E1880916903806858C0CE308CE52B
:10217000D80709F476C008F07FC0809169038BC04E
:10218000CC3FECE5DE0709F44FC018F5C3318CE510
:10219000D80709F47DC078F4C131ECE5DE0709F415
:1021A00073C0C231DC4509F0A2C00E949E18809124
:1021B00069038F7733C0C5318CE5D80709F472C045
:1021C00008F486C0CB3FDC4509F091C080916A03DA
:1021D0003EC0C115FDE5DF0709F45FC058F4CE3FEE
:1021E0009CE5D90709F444C008F43FC080916A0314
:1021F00082602DC0C230FDE5DF0709F475C008F428
:102200005DC0C330DD4509F072C080E06EC08091D2
:102210006903816003C080916903806180936903D1
:1022200066C08091690311C080916A0382608093C7
:102230006A035DC0809169038062F0CF8091690379
:102240008064ECCF8091690388608460E7CF81600F
:10225000EECF809169038E7FE1CF809169038D7FFE
:10226000DDCF80916903877FD9CF80916A0318C041
:1022700080916A038D7FDBCF809169038F7ECECF03
:10228000809169038F7DCACF809169038F7BC6CF10
:1022900080916903877F8B7FC1CF80916A038D7F97
:1022A0008E7FC5CF8091690382FB222720F991E0C0
:1022B000922790FB82F990FB83F9B0CF80916A035B
:1022C000982F909591708E7F892B90FB81F9AFCFDD
:1022D0000E949E188091690387FB222720F991E0D4
:1022E000922790FB87F99ACF81E00E94661F809128
:1022F000690390916A030E94E41E0E949E1880E088
:1023000001C081E0DF91CF910895CF93DF938631B3
:102310009C4541F5EB010E94171E982F8A81209160
:102320000E0130910F01882379F09A7A81E009F447
:1023300080E080934F02911102C069E201C065E321
:10234000C9010E9401200AC080914F02811102C080
:1023500069E201C065E3C9010E940C200E945B1E76
:1023600080E001C081E0DF91CF9108951092B90023
:102370008CE08093B8000895EF92FF920F931F9323
:10238000CF93DF93182FEB011092BC0084EA809367
:10239000BC000E94AE207C018091BC0087FD0EC075
:1023A000CF3F8FEFD807C1F30E94AE208E199F094F
:1023B0008C179D0788F38EEF9FEF2EC08091B90098
:1023C000887F883041F08091B900887F803119F092
:1023D0008FEF9FEF21C01093BB0084E88093BC0077
:1023E0000E94AE208C018091BC0087FD0CC0CF3FC5
:1023F0008FEFD807C1F30E94AE20801B910B8C1782
:102400009D0788F3D8CF8091B900887F883111F07B
:102410008034F1F680E090E0DF91CF911F910F9131
:10242000FF90EF9008950F931F93CF93DF93EB01ED
:102430008093BB0084E88093BC000E94AE208C0196
:102440008091BC0087FD0EC0CF3F8FEFD807C1F34E
:102450000E94AE20801B910B8C179D0788F38EEF96
:102460009FEF0CC02091B900287F81E090E02832D6
:1024700011F480E090E0919581959109DF91CF91E1
:102480001F910F9108950F931F93CF93DF93EC014A
:1024900084E88093BC000E94AE208C018091BC0037
:1024A00087FD0EC0CF3F8FEFD807C1F30E94AE204B
:1024B000801B910B8C179D0788F38EEF9FEF03C055
:1024C0008091BB0090E0DF91CF911F910F91089513
:1024D00084E98093BC000895909355028093540240
:1024E0000895E0915402F0915502309721F0019047
:1024F000F081E02D099480E00895E0915402F0917C
:102500005502309711F480E008950190F081E02D9C
:1025100009950895E0915402F0915502309799F091
:1025200020911A01222359F02091690327FF07C047
:10253000DC012C9111962C93119725E02C930280AD
:10254000F381E02D09940895E0915402F091550231
:10255000309739F022E0DC012C930480F581E02DE6
:102560000994089520915202309153022817390797
:1025700071F09093530280935202E0915402F091D3
:102580005502309721F00680F781E02D09940895D7
:1025900020915002309151022817390771F0909321
:1025A000510280935002E0915402F091550230970D
:1025B00021F00084F185E02D099408950E94BA204D
:1025C0006093690270936A0280936B0290936C022D
:1025D000609365027093660280936702909368022D
:1025E000089585B7806885BF85B7806885BF0895E1
:1025F00081E008950C94F81208950C94FC120C9448
:10260000FC120C94FF120C94FC120C9403130C9407
:10261000FC120E94F1128EEB9EE10E942D210E947D
:1026200007130C9405130E94A5200E946C090E94B8
:1026300032210C9401139F92AF92BF92CF92DF92FE
:10264000EF92FF920F931F93CF93DF93CDB7DEB737
:102650002A970FB6F894DEBF0FBECDBF0E94FD12C1
:102660000E94FC120E947D0981110E94DE1287E502
:10267000A82E82E0B82E00E010E0902E802F0E945D
:102680005E09D82EF501C1905F01C826B1F40F5F35
:102690001F4F0E30110589F78FEF89838A831B82C4
:1026A0000E94AE208160782F9D838C8349815A815E
:1026B0006B818D810E94F9132FC080911B0381FDD6
:1026C0000E946409E12CFF24F3948C2D8F21F1F0FA
:1026D0000E94FA12882399F0EE829F82DF2081E027
:1026E00009F480E088870E94AE208160782F9A8765
:1026F00089874E815F8168858A850E94F913F80178
:10270000E95AFD4F8081F826F08206C0E394FF0C61
:10271000F6E0EF12DACFBBCF0E94B90D0E94711222
:10272000909156028917B9F00E9471128093560257
:102730002A960FB6F894DEBF0FBECDBFDF91CF91C2
:102740001F910F91FF90EF90DF90CF90BF90AF90CF
:102750009F900C9464072A960FB6F894DEBF0FBEC4
:10276000CDBFDF91CF911F910F91FF90EF90DF9040
:10277000CF90BF90AF909F900895DC0111962C915F
:1027800011978C91682F70E041E050E001C0440F38
:102790008A95EAF712968C91129730E0882329F0F7
:1027A00080917D028823E9F006C0F901E359FD4FCD
:1027B00090819423B1F086E0829FF001839FF00D19
:1027C0001124E60FF71FEE0FFF1FE55EFE4F80811D
:1027D00091818D939C93F901E359FD4F8081482BA2
:1027E00006C0F901E359FD4F40958081482340839D
:1027F0000895CF93DF93CDB7DEB72B970FB6F8943C
:10280000DEBF0FBECDBF4F83588769877A878B871E
:1028100061110E943A1E9F8188852A853B85232B62
:1028200031F08F3F31F481E09F3F19F403C081E024
:1028300001C080E080FD04C0CE0107960E94BD1358
:10284000DE01119686E0FD0111928A95E9F785E097
:10285000FE01379601900D928A95E1F749815A81E0
:102860006B817C818D819E810E94571B2B960FB6B8
:10287000F894DEBF0FBECDBFDF91CF910895FC016C
:10288000808191810E94B01D92959F70963051F485
:10289000863F41F080917D0291E0892780937D02FF
:1028A00090937C020895CF93882309F4A9C0C82F80
:1028B0008238C1F40E94711281FDA2C069E3809147
:1028C0000E0190910F010E9401200E945B1E2FEFCC
:1028D00081EE94E0215080409040E1F700C000007C
:1028E00069E319C0833801F50E94711280FD88C028
:1028F00063E580910E0190910F010E9401200E94DA
:102900005B1E2FEF81EE94E0215080409040E1F774
:1029100000C0000063E580910E0190910F010E94BC
:102920000C20CF910C945B1E8438C1F40E9471126C
:1029300082FD66C067E480910E0190910F010E94B4
:1029400001200E945B1E2FEF81EE94E02150804019
:102950009040E1F700C0000067E4DDCF8CEF8C0F02
:10296000813AF8F48C2F0E94AF0B811149C06C2F73
:1029700080910E0190910F010E94811F882349F0E0
:102980006C2F80910E0190910F010E940C200E94EB
:102990005B1E6C2F80910E0190910F010E9401200F
:1029A000C0CF80E28C0F883048F4C77081E001C04E
:1029B000880FCA95EAF70E941A1EB3CFEBE5EC0F19
:1029C000E33040F4F0E0E45DFD4F808190E0CF9192
:1029D0000C94B212E8E5EC0FE73150F4F0E0EE0FA2
:1029E000FF1FE250FE4F80819181CF910C94C8125D
:1029F000CD3E30F08C2F0E94C90CCF910C949B0DD2
:102A0000CF910895882309F464C0823879F40E9434
:102A1000711281FF5EC069E380910E0190910F01F8
:102A20000E9401200E945B1E69E310C08338B1F44C
:102A30000E94711280FF4DC063E580910E0190915C
:102A40000F010E9401200E945B1E63E580910E0130
:102A500090910F010E940C200C945B1E843879F435
:102A60000E94711282FF35C067E480910E0190913F
:102A70000F010E9401200E945B1E67E4E7CF9CEFDC
:102A8000980F913A10F4682FE1CF90E2980F9830A8
:102A900050F4877091E001C0990F8A95EAF7892F69
:102AA0000E94201ED9CF9BE5980F933020F480E040
:102AB00090E00C94B21298E5980F973120F480E0E2
:102AC00090E00C94C8128D3E20F00E94240D0C94CE
:102AD0009B0D08951F93CF93DF93182FEB010E9456
:102AE0005314209741F08FE99FE00197F1F700C060
:102AF00000002197F6CF812FDF91CF911F910C9489
:102B00000215893319F060E070E002C060E570E002
:102B10000C946A15882321F00E941A1E0C945B1EE7
:102B20000895882321F00E94201E0C945B1E0895B6
:102B30008F929F92AF92BF92CF92DF92EF92FF92CD
:102B40000F931F93CF93DF936C01C62F172FFC01B8
:102B5000D281058102950F700E94101E8823B9F062
:102B6000DD23A9F0812F807F803441F090E29C0F1B
:102B7000983068F0803611F4C63F49F082E00E9438
:102B8000A51E0E94101E91E0E82EE92601C0E12C4E
:102B9000B12EB2949FE0B9228B2D90E08C3091053C
:102BA00008F01FC2FC01E456FF4F0C944F28012F80
:102BB0000F70812F807F11F00295007FDD2399F047
:102BC000002309F495C180E28C0F883010F0C11108
:102BD00004C0802F0E941A1E03C0802F0E942D1E49
:102BE0000E945B1E85C18C2F0E940215002309F4F0
:102BF000F8C180E28C0F883010F0C11104C0802F22
:102C00000E94201E03C0802F0E94331E0E945B1E64
:102C1000E8C1912F9F70812F807FF92E803219F0AB
:102C2000F29480EFF822CC2319F0C130C9F024C00F
:102C3000DD2371F0002341F0013031F40E94401E89
:102C40008F290E94481ECDC10E94401E8F290EC0B0
:102C5000002319F0013009F4C4C10E94511E1EC0A6
:102C6000DD2339F0023008F0BCC18F2D0E948A1597
:102C7000B8C10111B6C112C0DD2319F00023A9F3B8
:102C800037C1002359F0C93309F043C1FFEF27EEE4
:102C900083E0F15020408040E1F739C18F2D0E9440
:102CA00091159FC1812F86958695837019F081308B
:102CB00071F097C1DD2331F08C2F912F93700E941A
:102CC000B21297C180E090E00E94B2129BC1DD2356
:102CD00031F08C2F912F93700E94C8128AC180E02E
:102CE00090E00E94C8128EC18C2FDD2319F00E9443
:102CF000C90C02C00E94240D0E949B0D7AC1812F35
:102D0000837009F048C0D11170C12C2F22952695EF
:102D10002770220F220F6C2F6F70862F90E0A0E09B
:102D2000B0E0022E04C0880F991FAA1FBB1F0A948F
:102D3000D2F7C4FF10C04FE050E060E070E004C084
:102D4000440F551F661F771F2A95D2F7409550955F
:102D50006095709503C040E050E0BA01212F2695A0
:102D6000269523704A015B01882A992AAA2ABB2A40
:102D7000C501B401223049F058F4213019F00E9405
:102D80002B1C33C10E94191C30C10E943D1C2DC157
:102D90000E94171C2AC1DD2319F0812F817001C008
:102DA0008695882309F421C12C2F2295269527701A
:102DB000220F220F6C2F6F70862F90E0A0E0B0E002
:102DC000022E04C0880F991FAA1FBB1F0A94D2F7B6
:102DD000C4FF10C04FE050E060E070E004C0440F5A
:102DE000551F661F771F2A95D2F74095509560951D
:102DF000709503C040E050E0BA01212F269526953A
:102E000023704A015B01882A992AAA2ABB2AC50194
:102E1000B401223049F058F4213019F00E94F01C1E
:102E2000E4C00E94DE1CE1C00E94021DDEC00E94C0
:102E3000511CDBC0012F0F70DD2339F0802F0E9461
:102E4000771C8C2F0E948A15D0C08C2F0E94911560
:102E5000802F0E94981CC9C0C23FF9F028F4C03FDF
:102E600041F0C13F99F040C0C33FF1F0C43F31F1A0
:102E70003BC0DD2339F00111B4C0812F8F710E9456
:102E8000BD1CAFC0023008F0ACC0F7CFDD2339F075
:102E9000812F8F710E94771CA4C0DD23C9F3812F7D
:102EA0008F710E94981C9DC0DD2329F0812F8F71A6
:102EB0000E94621C96C00E945D1C93C0DD2351F0ED
:102EC000012F0F71802F0E94771C63E0802F0E94DA
:102ED000901E87C081E00E94A51E023008F481C0C8
:102EE00082E00E94A51E7DC0DD2331F0002381F227
:102EF0008C2F0E94531475C0002389F2C93349F402
:102F00002FEF87EE93E0215080409040E1F700C022
:102F100000008C2F0E94021564C08C2F90E0FC01F1
:102F2000E05FF109E730F10598F5E855FF4F0C94A3
:102F30004F28DD2309F466C090917D0281E0892746
:102F400005C0D0937D0255C081E08D2780937D021E
:102F500050C0D1114EC081E080937D0253C0D11189
:102F600048C010927D024EC0DD2319F00E94E81D7A
:102F700040C00E94F41D46C0DD2339F080917C02E0
:102F80008823D1F210927C0234C00023A9F23AC007
:102F900080917C020023C1F0882341F090917D0252
:102FA00081E0892780937D0210927C028C2FDD23A3
:102FB00019F00E9453141DC00E94021586E0F6010C
:102FC00011928A95E9F71EC0882399F0D11111C09A
:102FD00090917D0281E0892780937D0210927C028E
:102FE00011C088EF8B0D843020F40E9471120E9472
:102FF0006407DD2339F0107F103611F4C63F11F05D
:103000000E94021EEE20E9F00E94E41D80FD19C01E
:10301000F60112820E94DE1D0E94771CC6010E94EA
:1030200046180E94DE1DDF91CF911F910F91FF90F6
:10303000EF90DF90CF90BF90AF909F908F900C94C7
:10304000981CDF91CF911F910F91FF90EF90DF902F
:10305000CF90BF90AF909F908F9008950F931F9344
:10306000CF93DF93EC01688179818A810E94BB1D37
:103070008C010E94141D0E94051CB801CE010E9403
:103080009815DF91CF911F910F910895CF93DF9302
:10309000EC01988189812B813C81232B31F08F3F7A
:1030A00031F481E09F3F19F403C081E001C080E06A
:1030B00080FD19C0CE010E94AA0681110CC00E9499
:1030C000101E882381F08A81882369F082E0DF91D5
:1030D000CF910C94A51ECE010E942E18CE01DF9137
:1030E000CF910C948306DF91CF910895882321F02E
:1030F0000E942D1E0C945B1E0895882321F00E94CF
:10310000331E0C945B1E089580E090E00E94B21282
:1031100080E090E00E94C8120E943A1E0E943D1E6C
:103120000E945B1E0E94CC0E0C949B0D80910E01A0
:1031300090910F010E9417200C9484180E942A1E5F
:103140000C949618E92FE295EF704E2F50E0FA019B
:103150003297EE30F105B0F4E155FF4F0C944F2853
:10316000803F91F018F4883E68F40EC0843F51F41B
:103170000BC0883E48F0813F29F406C093FB8827A6
:1031800080F9089580E0089581E008950E94B01DBF
:103190000E94A2180895CF93DF9300D000D01F9211
:1031A000CDB7DEB70F900F900F900F900F90DF917B
:1031B000CF910895CF93DF9300D000D000D0CDB74A
:1031C000DEB726960FB6F894DEBF0FBECDBFDF91F7
:1031D000CF9108951F93CF93DF93C0917E0216E0A5
:1031E00080917F02C81799F0D0E01C9FF0011D9FCD
:1031F000F00D1124E058FD4F4081518162817381AF
:10320000848195810E94DA182196C770E9CFDF91F9
:10321000CF911F9108954091B0025091B1026091F9
:10322000B2027091B3028091B4029091B5020C94F5
:10323000DA180F931F93CF93DF938091B502829595
:103240008F7009F05DC08091B202882309F458C0E4
:1032500080917E0210917F026091B0027091B10264
:10326000C091B302D091B40291E06F3F09F090E0B9
:10327000292F06E0811709F443C0209721F07F3FF2
:1032800021F030E003C031E001C0322F90E030FD8A
:1032900034C0089FF001099FF00D1124DF01A058F0
:1032A000BD4F11963C911197371327C03C913613AF
:1032B00024C012963C91129731111FC013964D9164
:1032C0005C9114974C1B5D0B483C5105B0F4809108
:1032D000B5028F7080618093B502EB57FD4F8081FE
:1032E0008F708061808380EB92E00E944618DF91AE
:1032F000CF911F910F910C94EA1801968770BACF65
:10330000DF91CF911F910F9108959F92AF92BF923D
:10331000CF92DF92EF92FF920F931F93CF93DF93A1
:10332000CDB7DEB761970FB6F894DEBF0FBECDBF45
:103330008C0185E0F801DE011D9601900D928A95C1
:10334000E1F7F80140815181E2809091B0026091F3
:10335000B1022091B3023091B4022115310531F050
:103360006F3F31F481E09F3F19F403C081E001C059
:1033700080E0F82FF1709F2E80FD46C1F801A380F8
:10338000B48080EBC82E82E0D82EF090B202F50116
:10339000E21BF30BFF2009F4DFC08091B502E83C8B
:1033A000F10508F09BC0282F207F09F052C056136A
:1033B00013C0491311C0FE2CE1100EC08F70806144
:1033C0008093B5020E940B19C6010E944618809195
:1033D000B502F801858358C1AB2831F05F3F31F465
:1033E00081E04F3F19F403C081E001C080E080FD1F
:1033F00003C081E08E2502C080E090E0F82FF170DC
:10340000FF2E80FF1CC080917E0220917F0236E05B
:10341000821709F417C190E0389FF001399FF00D31
:103420001124E058FD4F6181561306C06081461398
:1034300003C06281E61203C001968770E9CFFE2CBB
:10344000EE2009F421C18091B50281608093B5021C
:103450005AC0561306C0491304C0E11002C0F80157
:103460009FC04D875E878D859E850E94C6188823E4
:1034700079F1EE2069F12091B502822F82958F704B
:1034800090E0029774F08091B0029091B102988719
:103490008F831986BB86AA862C87CE0107960E9449
:1034A000461886E0F801A0EBB2E001900D928A95F3
:1034B000E1F70E9419190E940B190DC0561729F146
:1034C0004D875E878D859E850E94C61881112CC010
:1034D000C8010E944618FF24F394D6C0282F207FED
:1034E00069F77A2DB98AA88A6E2D89890E94CB182E
:1034F00080EB92E00E94461886E0F60111928A95D0
:10350000E9F70E940B19F12CBFC04913D9CFE11084
:10351000D7CFF8018583C8010E94461886E0F601DE
:1035200011928A95E9F7B0C0EE2091F22091B50290
:10353000822F82958F7090E002970CF4B2CF809129
:10354000B0029091B1029A8389831B82BD82AC82C2
:103550002E83CE010196A3CFE83CF10508F047C0C9
:10356000FE2CEE2009F4B4CF561330C049132EC000
:103570002091B50220FD21C0822F82958F70482FA7
:1035800050E041155105C9F0F80125834F30510530
:1035900041F08F5F982F9295907F822F8F70892BAB
:1035A0008583C8010E94461886E0F801A0EBB2E0CE
:1035B00001900D928A95E1F742C086E0F801A0EBF8
:1035C000B2E001900D928A95E1F75EC04D875E876B
:1035D0008D859E850E94C618811163CF8091B502AA
:1035E00081608093B502C8010E9446184DC07A2DB3
:1035F000B98AA88A6E2D89890E94CB1886E0F601C7
:1036000011928A95E9F71BC0EE2009F461CF4D872E
:103610005E878D859E850E94C618F82E882309F442
:1036200057CF86E0F801A0EBB2E001900D928A95A9
:10363000E1F780EB92E00E943F140E9419190E946A
:103640000B1922C04D875E878D859E850E94B01D17
:10365000292F22952F70223028F49F7039F0811184
:1036600005C00BC0243028F49F7049F4805E883078
:1036700020F0C8010E9446189F2CF92C05C0F801C3
:103680009581907F99F7F9CF8F2D61960FB6F894B9
:10369000DEBF0FBECDBFDF91CF911F910F91FF9085
:1036A000EF90DF90CF90BF90AF909F9008951F93C1
:1036B000CF93DF93CDB7DEB72C970FB6F894DEBF6C
:1036C0000FBECDBF4F83588769877A878B879C87CA
:1036D000CE0107960E9485198823D1F09F818885A5
:1036E0002A853B85232B31F08F3F31F481E09F3FCA
:1036F00019F403C081E001C080E080FD47C04F8124
:10370000588569857A858B859C850E94DA183EC02C
:1037100086E0FE013796DE01119601900D928A95A2
:10372000E1F7FF81E8856A857B856115710531F0D8
:10373000EF3F31F481E0FF3F19F403C081E001C0A5
:1037400080E080FD23C020917F0230E0C901019616
:103750008770992740917E0250E084179507F1F118
:10376000F983EA837D836C8396E0929FD001939FD7
:10377000B00D1124A058BD4FFE01319601900D925D
:103780009A95E1F780937F020E94EA1816E08091F3
:103790007E0290917F02891771F1189FC001112458
:1037A00080589D4F0E948519882329F1E0917E025F
:1037B0001E9FF0011124E058FD4F4081518162812C
:1037C0007381848195810E94DA1880917E0290E055
:1037D00001968770992780937E02D9CF0E949E1808
:1037E00010927F0210927E02E0EBF2E086E0DF01B1
:1037F0001D928A95E9F72C960FB6F894DEBF0FBE9E
:10380000CDBFDF91CF911F910895089508950C9435
:10381000061C0C94071C0E94091C6093F102709313
:10382000F2028093F3029093F4020C9484180C94A7
:103830000B1C0F931F930091F1021091F202209143
:10384000F3023091F402602B712B822B932B1F918A
:103850000F910C940B1C0F931F930091F102109188
:10386000F2022091F3023091F4026023712382234B
:1038700093231F910F910C940B1C0F931F93009196
:10388000F1021091F2022091F3023091F4026027CC
:103890007127822793271F910F910C940B1C0C9476
:1038A000061C0E944F1C6093ED027093EE02809301
:1038B000EF029093F0020C94841860E070E0CB016A
:1038C0000C94511C0F931F9341E050E060E070E0B6
:1038D0008A019B0104C0000F111F221F331F8A950C
:1038E000D2F7C901B8011F910F910C94511C0F938D
:1038F0001F9341E050E060E070E004C0440F551FAA
:10390000661F771F8A95D2F78091ED029091EE02A3
:10391000A091EF02B091F0028A019B01082B192BB4
:103920002A2B3B2BC901B8011F910F910C94511CFC
:103930000F931F9341E050E060E070E004C0440F3B
:10394000551F661F771F8A95D2F740955095609551
:1039500070958091ED029091EE02A091EF02B091EE
:10396000F0028A019B01082319232A233B23C90162
:10397000B8011F910F910C94511C0F931F9341E0BC
:1039800050E060E070E004C0440F551F661F771FD1
:103990008A95D2F78091ED029091EE02A091EF020C
:1039A000B091F0028A019B01082719272A273B279B
:1039B000C901B8011F910F910C94511C0F931F93D3
:1039C0000091ED021091EE022091EF023091F00291
:1039D000602B712B822B932B1F910F910C94511CF8
:1039E0000F931F930091ED021091EE022091EF02D0
:1039F0003091F00260237123822393231F910F9152
:103A00000C94511C0F931F930091ED021091EE0244
:103A10002091EF023091F0026027712782279327CF
:103A20001F910F910C94511C0895292F220F920F72
:103A3000990F890FE82FE695E695E695877051E096
:103A400001C0550F8A95EAF785E0E89FF00111243F
:103A5000EA54FD4F20E030E070E04081CB01022EBF
:103A600002C0969587950A94E2F781708195842724
:103A70008523842781932F5F3F4F2530310569F7D8
:103A80000895292F220F920F990F890F682F66959D
:103A900066956695982F977085E0689FB001112410
:103AA00040E050E080E0FB01E40FF51FEA54FD4FD9
:103AB000208130E0092E02C0369527950A94E2F75E
:103AC00021703327042E01C0220F0A94EAF7822BBB
:103AD0004F5F5F4F4530510531F70895BF92CF9248
:103AE000DF92EF92FF920F931F93CF93DF938C019E
:103AF000C090ED02D090EE02E090EF02F090F00264
:103B00008091F1029091F202A091F302B091F4023F
:103B1000C82AD92AEA2AFB2ACFE1D0E0D701C60178
:103B20000C2E04C0B695A795979587950A94D2F761
:103B300080FD04C0219790F7B12C07C0BC2EB801BE
:103B40008C2F0E9480070197A9F38B2DDF91CF91D5
:103B50001F910F91FF90EF90DF90CF90BF9008954D
:103B6000CF93DF93EC010E946E1DBE010E9480077F
:103B7000DF91CF9108951F93CF93DF93EB01909145
:103B80007B02992321F0CB010E94B01D13C0882332
:103B900049F0CB010E946E1D182F682FCE010E94A4
:103BA000151D04C0CB010E94411D182FBE01812F9D
:103BB0000E948007DF91CF911F9108958091F602B6
:103BC00085958595859508958091F602877008956D
:103BD00082E08093F50281E080937D020895109247
:103BE000F50210927D0208958091F502823019F459
:103BF00081E08093F5028091F502833011F40C94FA
:103C0000EF1D08958091F502823019F483E08093CE
:103C1000F5028091F502813011F40C94EF1D0895A6
:103C20009091F602977081E009F480E00895809108
:103C30001A03089590911A03892B80931A0308950B
:103C4000809590911A03892380931A030895809395
:103C50001A03089510921A03089590911903892B5D
:103C60008093190308958095909119038923809377
:103C700019030895109219030895109218030895D6
:103C80008091F702089508950C94431E0C94441EED
:103C90009091F702981721F08093F7020C94461E3A
:103CA00008958091F702882329F01092F70280E0AE
:103CB0000C94461E0895E0910E01F0910F01809141
:103CC0001A038083E0910E01F0910F0190818091A1
:103CD0001903892B8083E0910E01F0910F019081EF
:103CE00080911803892B80838091F702882381F0CB
:103CF000E0910E01F0910F019081892B80838091DA
:103D00000E0190910F010E946B1F81110E94511EA4
:103D100080910E0190910F010C948A120C94431E15
:103D200098E0899F90011124262B2093F6020E948F
:103D3000771C8091F6028595859585950C948E1E4D
:103D40001092F60280E00C948E1E2091F60280956F
:103D500082238093F602982F977079F430E0482FF1
:103D6000082E000C550B2417350739F085958595DD
:103D700085950E94981C0C94A01E089580E00895DB
:103D800080E090E00E94842921E08B3E9E4F09F064
:103D900020E0822F089582E090E00C94762983E061
:103DA00090E00C947629CF9384E090E00E947629ED
:103DB000C82F81E290E00E9476292C2F30E0A901E3
:103DC000582BCA01CF910895CF93C92F682F84E053
:103DD00090E00E948A296C2F81E290E0CF910C94B0
:103DE0008A298FE090E00C947E29AB01BC018FE022
:103DF00090E00C949C29AB01BC0183E190E00C9411
:103E00009C2960E070E0CB010C94FB1E6BEE7EEF12
:103E100080E090E00E94A82960E082E090E00E94AB
:103E20008A2960E083E090E00E948A291092F102E2
:103E30001092F2021092F3021092F40260E084E019
:103E400090E00E948A2960E081E290E00E948A2945
:103E500060E085E090E00E948A2960E086E090E0E2
:103E60000E948A296FEF87E090E00E948A2940E053
:103E700050E0BA0188E090E00E949C2960E08DE06B
:103E800090E00E948A2940E050E0BA0188E190E089
:103E90000E949C2960E087E190E00E948A2940E02E
:103EA00050E0BA018CE190E00E949C2960E080E241
:103EB00090E00E948A2940E050E0BA0188E190E059
:103EC0000E949C290C94C3050C94061F682F8EE059
:103ED00090E00C948A29FC01329680911A01882383
:103EE00031F08091690387FF02C09EE101C096E036
:103EF00080E0915028F021912223D9F38F5FF9CFF0
:103F00000895662351F120911A012223E9F02091AE
:103F1000690327FF19C0462F4695469546954E31B1
:103F2000E0F4677021E030E002C0220F331F6A9591
:103F3000E2F7FC01E40FF11D828190E02823392390
:103F400081E0232B69F409C0FC0132960896219187
:103F5000621729F0E817F907D1F780E0089581E0AA
:103F600008959C01FC0132969FEF80E04191461735
:103F700089F09F3F19F4411101C0982F8F5F86305F
:103F8000A9F79F3F39F0F901E90FF11D97FDFA9567
:103F90006283089508959C012A5F3F4FFC0142818E
:103FA000461301C01282019682179307B9F708954C
:103FB000262F2695269526952E3168F4FC01E20FD2
:103FC000F11D677021E030E001C0220F6A95EAF729
:103FD0008281282B22830895262F269526952695C3
:103FE0002E3170F4FC01E20FF11D677021E030E02A
:103FF00001C0220F6A95EAF7209582812823228347
:10400000089520911A01222329F02091690327FDA8
:104010000C94D81F0C94B11F20911A01222329F06F
:104020002091690327FD0C94EC1F0C94CB1F209169
:104030001A01FC013296222331F08091690387FF37
:1040400002C08EE101C086E0DF011D928A95E9F78A
:10405000089508950C942920CF930E94AB040E94E8
:104060007D090E942A20C0E08C2F0E945E098111E8
:1040700004C0CF5FCE30C1F701C081E0CF91089579
:104080000C9429200C94402080916F03843049F1D6
:104090000E94422080E00E94640710921C0320E4EA
:1040A00088E190E00FB6F894A895809360000FBE69
:1040B0002093600083B7817F846083BF83B7816072
:1040C00083BF7894889583B78E7F83BF0FB6F894AB
:1040D000A8958091600088618093600010926000D4
:1040E0000FBE08950C9429200E949E180E94711200
:1040F0000E9464070C9472201F920F920FB60F92C9
:1041000011248F939F93AF93BF9380911C038111D0
:1041100013C08091650390916603A0916703B091ED
:1041200068034196A11DB11D8093650390936603BA
:10413000A0936703B0936803BF91AF919F918F9154
:104140000F900FBE0F901F90189582E084BD93E0F2
:1041500095BD9AEF97BD80936E0008952FB7F894A0
:104160008091650390916603A0916703B091680305
:104170002FBF08952FB7F89460916503709166037F
:1041800080916703909168032FBF08959C014FB7FA
:10419000F8948091650390916603A0916703B091B4
:1041A00068034FBF821B930B089578941F920F9260
:1041B0000FB60F9211248F939F93AF93BF9380916B
:1041C000650390916603A0916703B091680301961F
:1041D000A11DB11D8093650390936603A0936703AF
:1041E000B0936803BF91AF919F918F910F900FBED5
:1041F0000F901F901895F89481E08093E00080E282
:104200008093D800E9ECF0E010828FE19EE4019702
:10421000F1F700C000001DBA109268001CBC10BE6F
:104220001FBA10927A0010926E0010926F001092D6
:104230007100109272001082ECEBF0E0108214B862
:1042400017B81AB81DB810BA108215B818B81BB82C
:104250001EB811BA0C94003F0895909331028093D8
:10426000300208950E94C01E811102C00E94641F86
:104270000E94CB1E80931B030E94D31E90936A035F
:10428000809369030E94CF1E682F70E080E090E069
:104290000E94171C6091ED027091EE028091EF0276
:1042A0009091F0020C944F1C80913D030895CF93A0
:1042B000DF9300D01F92CDB7DEB790916F0394309B
:1042C00019F589837B836A8382E08093E9008FEF0D
:1042D0009091E800815095FD06C095ED9A95F1F713
:1042E00000008111F5CF8091E80085FF0DC040E00E
:1042F00050E063E070E0CE0101960E948923809136
:10430000E8008E778093E8000F900F900F90DF9178
:10431000CF910895BC0184E00C945721BC0183E047
:104320000C94572122E02093E9002FEF3091E80010
:10433000215035FD06C035ED3A95F1F70000211109
:10434000F5CF2091E80025FF0BC040E050E066E08B
:1043500070E00E9489238091E8008E778093E800C6
:104360000895CF93DF9320911A01222339F02091F1
:10437000690327FF03C060E222E002C068E021E099
:104380002093E9002FEF3091E800215035FD06C061
:1043900035ED3A95F1F700002111F5CF2091E800B5
:1043A00025FF1DC0EC0180911A01811105C040E07C
:1043B00050E068E070E003C070E040E050E0CE0103
:1043C0000E9489238091E8008E778093E80080E244
:1043D000FE01ADE1B3E001900D928A95E1F7DF9126
:1043E000CF91089580916E03811109C00E941A2512
:1043F0000E9477258091E20084608093E200089516
:1044000010926E03089508950895089542E061ECB6
:1044100081E00E94932442E261EC82E00C949324B8
:1044200080917103833009F460C030F4813071F001
:10443000823009F499C008958A3009F485C08B3020
:1044400009F46BC0893009F0A7C020C080917003C7
:10445000813A09F0A1C08091E800877F8093E8004D
:104460008091740390917503892B21F460E28DE1B2
:1044700093E003C060E080E090E070E00E94D4230D
:104480008091E8008B778093E80008958091700315
:10449000813209F081C08091740390917503029775
:1044A00008F07AC08091E800877F8093E8008091CF
:1044B000E80082FD05C080916F038111F8CF6CC0C8
:1044C0002091F3008091F20090E0922B029729F462
:1044D0008091F1008B7F813021F48091F1008093F5
:1044E0003D038091E8008B7753C080917003813A3F
:1044F00009F052C08091740390917503892B09F0E3
:104500004BC08091E800877F8093E8008091E800AD
:1045100080FFFCCF80911A0136C0809170038132F8
:10452000D9F58091740390917503892BA9F5809139
:10453000E800877F8093E8000E94C824809172037E
:1045400080931A010C949E1880917003813221F59A
:104550008091E800877F8093E8000E94C8248091C2
:10456000730380933E03089580917003813AA1F410
:104570008091E800877F8093E8008091E80080FFC9
:10458000FCCF80913E038093F1008091E8008E770C
:104590008093E8000C94C824089584B7877F84BF73
:1045A0000FB6F894A89580916000886180936000B0
:1045B000109260000FBE90E080E80FB6F8948093F0
:1045C0006100909361000FBE0E9409130E941A259A
:1045D0000E9477258091E20084608093E2007894C5
:1045E0000E940C280E94131380E191E00E946C123B
:1045F00080916F038530A9F480916F03853079F441
:104600000E94442080916D038823B1F30E942C20E6
:10461000882391F30E9473230E949E18EDCF0E947D
:1046200074200E941B130E94FD120E94FC12E0CF16
:104630000C941A23292F332723303105C9F060F455
:104640002130310581F02230310509F044C08BE37F
:1046500090E02CEC35E043C021323105E1F022320C
:10466000310549F138C082E190E027E036E037C0FB
:1046700099278130910549F028F0029761F5E6E825
:10468000F5E005C0E8ECF5E002C0EEE9F5E0849164
:1046900090E09F0124C06115710541F06130710502
:1046A000D1F489E090E027EF35E019C089E090E08F
:1046B0002EED35E014C06115710541F061307105D2
:1046C00051F486EB90E029E136E009C080E490E007
:1046D0002FEC36E004C080E090E020E030E0FA010A
:1046E00031832083089580E189BD82E189BD09B4C9
:1046F00000FEFDCF8091D8008F7D8093D8008091FF
:10470000E00082608093E0008091E00081FDFCCFBA
:104710000895CF92DF92EF92FF920F931F93CF9362
:10472000DF93EC018B017A010E94E724811133C0F1
:10473000E114F10439F0F70180819181081B190B14
:10474000C80FD91FC12CD12C0115110519F1809169
:10475000E80085FD16C08091E8008E778093E80020
:10476000E114F10449F0F70180819181C80ED91E4E
:10477000D182C08285E00FC00E94E724882321F304
:104780000AC089918093F10001501109FFEFCF1AFF
:10479000DF0ADACF80E0DF91CF911F910F91FF9078
:1047A000EF90DF90CF9008952091760330917703BA
:1047B0002617370748F06115710539F42091E80094
:1047C0002E772093E80001C0B901FC0120E06115BB
:1047D000710579F180916F038823F1F18530F1F152
:1047E0008091E80083FD3CC08091E80082FD2EC0EE
:1047F0008091E80080FFEBCF2091F3008091F200E0
:1048000090E0922B6115710551F08830910538F4D4
:1048100021912093F100615071090196F3CF21E0BD
:10482000089709F020E08091E8008E778093E800F7
:10483000CECF2111CFCF0AC080916F03882361F0C2
:10484000853061F08091E80083FD0AC08091E80026
:1048500082FFF2CF80E0089582E0089583E008951A
:1048600081E008952091760330917703261737076A
:1048700048F06115710539F42091E8002E772093F6
:10488000E80001C0B901FC0120E06115710591F15A
:1048900080916F03882309F440C0853009F43FC03C
:1048A0008091E80083FD3DC08091E80082FD2FC02B
:1048B0008091E80080FFE9CF2091F3008091F20021
:1048C00090E0922B6115710559F08830910540F404
:1048D00024912093F1003196615071090196F2CF35
:1048E00021E0089709F020E08091E8008E7780931E
:1048F000E800CBCF2111CCCF0AC080916F03882371
:1049000061F0853061F08091E80083FD0AC08091FC
:10491000E80082FFF2CF80E0089582E0089583E00E
:10492000089581E00895982F973068F59093E900F5
:10493000981739F07091EC002091ED005091F00043
:1049400003C0242F762F50E021FD02C09F5FECCFE3
:104950003091EB003E7F3093EB003091ED003D7FD6
:104960003093ED003091EB0031603093EB007093A9
:10497000EC002093ED005093F0002091EE0027FD15
:10498000E5CF80E008958F708093E90081E008957D
:104990008091700387FF11C08091E80082FD05C0FF
:1049A00080916F038111F8CF11C08091E8008B775F
:1049B0000BC080916F03882349F08091E80080FF4D
:1049C000F8CF8091E8008E778093E80008952091D9
:1049D000E4003091E50095E64091EC00842F817071
:1049E00040FF23C08091E80080FD1DC080916F03CF
:1049F000882399F0853099F08091EB0085FD11C0F6
:104A00004091E4005091E5002417350729F39150B7
:104A100011F09A01E1CF84E0089582E0089583E0E7
:104A2000089581E0089580E008954091E80042FFF4
:104A3000DDCF08950E9488250E949025E0EEF0E0E9
:104A4000808181608083E8EDF0E080818F778083D2
:104A500019BCA7EDB0E08C918E7F8C9380818F7E06
:104A6000808310926E0308950F931F93CF93DF936B
:104A70000E9488250E949025C8EDD0E088818F771C
:104A8000888388818068888388818F7D888319BC2A
:104A900010926F0310926B0310926D0310926C03CF
:104AA00000EE10E0F80180818B7F80838881816037
:104AB000888342E060E080E00E949324E1EEF0E031
:104AC00080818E7F8083E2EEF0E080818160808350
:104AD000808188608083F80180818E7F80838881D7
:104AE00080618883DF91CF911F910F910895E8ED48
:104AF000F0E080818F7E8083E7EDF0E0808181604F
:104B0000808384E082BF81E080936E030C9434251F
:104B1000E8EDF0E080818E7F80831092E2000895BE
:104B20001092DA001092E10008951F920F920FB6D2
:104B30000F9211242F933F934F935F936F937F9323
:104B40008F939F93AF93BF93EF93FF938091E10077
:104B500082FF0BC08091E20082FF07C08091E100DC
:104B60008B7F8093E1000E940B288091DA0080FF08
:104B70001FC08091D80080FF1BC08091DA008E7F1B
:104B80008093DA008091D90080FF0DC080E189BD5B
:104B900082E189BD09B400FEFDCF81E080936F03FF
:104BA0000E94F22105C019BC10926F030E940022DE
:104BB0008091E10080FF19C08091E20080FF15C064
:104BC0008091E2008E7F8093E2008091E20080611C
:104BD0008093E2008091D80080628093D80019BC55
:104BE00085E080936F030E9404228091E10084FF9E
:104BF00030C08091E20084FF2CC080E189BD82E159
:104C000089BD09B400FEFDCF8091D8008F7D8093CF
:104C1000D8008091E1008F7E8093E1008091E200D6
:104C20008F7E8093E2008091E20081608093E200B9
:104C300080916B03882311F084E007C08091E3002A
:104C400087FD02C081E001C083E080936F030E9472
:104C500005228091E10083FF29C08091E20083FF5B
:104C600025C08091E100877F8093E10082E08093FE
:104C70006F0310926B038091E1008E7F8093E100BF
:104C80008091E2008E7F8093E2008091E20080615B
:104C90008093E20042E060E080E00E9493248091F3
:104CA000F00088608093F0000E940322FF91EF9152
:104CB000BF91AF919F918F917F916F915F914F9134
:104CC0003F912F910F900FBE0F901F9018951F923C
:104CD0000F920FB60F9211242F933F934F935F9330
:104CE0006F937F938F939F93AF93BF93CF93DF93F4
:104CF000EF93FF93C091E900CF708091EC00D82F23
:104D0000D17080FDD0E81092E9008091F000877F9B
:104D10008093F00078940E94AB261092E900809175
:104D2000F00088608093F000CD2BCF70C093E90035
:104D3000FF91EF91DF91CF91BF91AF919F918F91B3
:104D40007F916F915F914F913F912F910F900FBE87
:104D50000F901F9018951F93CF93DF93CDB7DEB7B9
:104D6000AA970FB6F894DEBF0FBECDBFE0E7F3E021
:104D70008091F100819323E0E837F207C9F70E94A0
:104D800010228091E80083FF2EC1809170039091E2
:104D90007103492F50E04A30510508F024C1FA014F
:104DA000E354FF4F0C944F28803821F0823809F0EB
:104DB0001AC108C080916C0390916D03992389F00A
:104DC00082600FC0809174038F70873008F00BC130
:104DD0008093E9008091EB0085FB882780F9109291
:104DE000E9009091E800977F9093E8008093F100AC
:104DF0001092F100D1C0282F2D7F09F0F4C0882334
:104E000019F0823061F0EFC080917203813009F0B7
:104E1000EAC0933009F080E080936D032EC080914A
:104E2000720381112AC0809174038F702FEF280FB5
:104E3000263008F0D8C08093E9002091EB0020FFD5
:104E40001CC0933021F48091EB00806214C09091DB
:104E5000EB0090619093EB0021E030E0A90102C0EB
:104E6000440F551F8A95E2F74093EA001092EA003A
:104E70008091EB0088608093EB001092E9008091B4
:104E8000E800877F8093E8000E94C824ACC08111AD
:104E9000AAC0109172031F778091E3008078812B64
:104EA0008093E3008091E800877F8093E8000E9470
:104EB000C8248091E80080FFFCCF8091E3008068E7
:104EC0008093E300111102C082E001C083E080936F
:104ED0006F0389C08058823008F085C080917203CA
:104EE000909173038C3D53E0950779F583E08A83B5
:104EF0008AE289834FB7F894DE01139620E03EE002
:104F000051E2E32FF0E050935700E49120FF03C0FB
:104F1000E295EF703F5FEF708E2F90E0EA3010F077
:104F2000C79601C0C0968D939D932F5F243149F79A
:104F30004FBF8091E800877F8093E8006AE270E0CD
:104F4000CE0101960E94D42316C060917403709123
:104F50007503AE014F5F5F4F0E941823BC01892B80
:104F600009F441C09091E800977F9093E80089810F
:104F70009A810E9432248091E8008B778093E80028
:104F800032C0803881F58091E800877F8093E80007
:104F900080916B038093F1008091E8008E7772CF4F
:104FA000811121C080917203909173039927029718
:104FB000D4F48091E800877F8093E80080917203A9
:104FC00080936B030E94C82480916B03811106C0FB
:104FD0008091E30087FD02C081E001C084E08093FE
:104FE0006F030E9406228091E80083FF0AC080912F
:104FF000E800877F8093E8008091EB0080628093D7
:10500000EB00AA960FB6F894DEBF0FBECDBFDF91BE
:10501000CF911F9108950895CF9380916F038823B6
:10502000A1F0C091E900CF709091EC00892F8170C0
:1050300090FD80E8C82B1092E9008091E80083FD84
:105040000E94AB26CF70C093E900CF910895AA1BB0
:10505000BB1B51E107C0AA1FBB1FA617B70710F063
:10506000A61BB70B881F991F5A95A9F78095909595
:10507000BC01CD01089597FB072E16F4009407D0CC
:1050800077FD09D00E94272807FC05D03EF49095B3
:1050900081959F4F0895709561957F4F0895EE0F0C
:1050A000FF1F0590F491E02D09940F931F93CF9368
:1050B000DF938230910510F482E090E0E0917A0372
:1050C000F0917B0320E030E0A0E0B0E0309719F1F0
:1050D000408151810281138148175907C8F0841714
:1050E000950769F4109731F012960C931297139666
:1050F0001C9327C000937A0310937B0322C02115D1
:10510000310519F04217530718F49A01BD01EF0158
:10511000DF01F801DBCF21153105F9F0281B390B30
:105120002430310580F48A819B816115710521F05D
:10513000FB019383828304C090937B0380937A0363
:10514000FE01329644C0FE01E20FF31F819391935A
:1051500022503109398328833AC020917803309155
:105160007903232B41F42091020130910301309304
:1051700079032093780320910001309101012115DA
:10518000310541F42DB73EB740910401509105011E
:10519000241B350BE0917803F0917903E217F307B4
:1051A000A0F42E1B3F0B2817390778F0AC014E5F97
:1051B0005F4F2417350748F04E0F5F1F5093790358
:1051C000409378038193919302C0E0E0F0E0CF0137
:1051D000DF91CF911F910F910895CF93DF930097A7
:1051E00009F481C0FC01329713821282A0917A03E4
:1051F000B0917B03109781F420813181820F931F3E
:1052000020917803309179032817390751F5F093ED
:105210007903E093780367C0ED0120E030E0CE171A
:10522000DF0740F44A815B819E0141155105F1F091
:10523000EA01F5CFD383C28340815181840F951F4A
:10524000C817D90759F488819981840F951F029650
:10525000918380838A819B81938382832115310589
:1052600029F4F0937B03E0937A033DC0E901FB83CB
:10527000EA8349915991C40FD51FEC17FD0761F4DA
:1052800080819181840F951F0296E901998388831B
:10529000828193819B838A83E0E0F0E012968D9176
:1052A0009C911397009719F0FD01DC01F7CF8D91C8
:1052B0009C9111979D012E5F3F4F820F931F20916C
:1052C0007803309179032817390769F4309729F466
:1052D00010927B0310927A0302C013821282B09361
:1052E0007903A0937803DF91CF910895F999FECFC8
:1052F00092BD81BDF89A992780B50895A6E1B0E0E6
:1053000044E050E00C94B029A8E1B0E042E050E065
:105310000C94B029262FF999FECF92BD81BDF89A41
:10532000019700B4021639F01FBA20BD0FB6F894E9
:10533000FA9AF99A0FBE08950396272F0E948B2997
:105340000E948A29252F0E948B29242F0C948B29B7
:105350000196272F0E948B290C948A29DC01CB010E
:10536000FC01F999FECF06C0F2BDE1BDF89A319675
:1053700000B40D9241505040B8F70895F894FFCF13
:1053800000007C03200020002808643C0714F80279
:105390005421B12192218E218A2101000D010D029B
:1053A0000D030D040D050D000C010C020C030C0483
:1053B0000C050C000B010B020B030B040B050B007F
:1053C0000A010A020A030A040A050A00090109027D
:1053D0000903090409050900080108020803080473
:1053E000080508000701070207030704070507006F
:1053F000060106020603060406050600050105026D
:105400000503050405050500040104020403040462
:10541000040504000301030203030304030503005E
:10542000020102020203020402050200010101025C
:105430000103010401050100000100020003000452
:10544000000500E200E900EA00B500B600B700CDB3
:10545000008301CC008A01920194012102230224DD
:10546000022502260227022A02B300B4006F007050
:105470000081828301020304050607080900E20097
:10548000E900EA00B500B600B700CD008301CC000A
:105490008A0192019401210223022402250226029C
:1054A00027022A02B300B4006F00700081828300DB
:00000001FF
